{
  "_format": "hh-sol-artifact-1",
  "contractName": "ERC721Mock",
  "sourceName": "contracts/ERC721Mock.sol",
  "abi": [
    {
      "inputs": [
        {
          "internalType": "address",
          "name": "marketplaceAddress",
          "type": "address"
        }
      ],
      "stateMutability": "nonpayable",
      "type": "constructor"
    },
    {
      "anonymous": false,
      "inputs": [
        {
          "indexed": true,
          "internalType": "address",
          "name": "owner",
          "type": "address"
        },
        {
          "indexed": true,
          "internalType": "address",
          "name": "approved",
          "type": "address"
        },
        {
          "indexed": true,
          "internalType": "uint256",
          "name": "tokenId",
          "type": "uint256"
        }
      ],
      "name": "Approval",
      "type": "event"
    },
    {
      "anonymous": false,
      "inputs": [
        {
          "indexed": true,
          "internalType": "address",
          "name": "owner",
          "type": "address"
        },
        {
          "indexed": true,
          "internalType": "address",
          "name": "operator",
          "type": "address"
        },
        {
          "indexed": false,
          "internalType": "bool",
          "name": "approved",
          "type": "bool"
        }
      ],
      "name": "ApprovalForAll",
      "type": "event"
    },
    {
      "anonymous": false,
      "inputs": [
        {
          "indexed": true,
          "internalType": "address",
          "name": "from",
          "type": "address"
        },
        {
          "indexed": true,
          "internalType": "address",
          "name": "to",
          "type": "address"
        },
        {
          "indexed": true,
          "internalType": "uint256",
          "name": "tokenId",
          "type": "uint256"
        }
      ],
      "name": "Transfer",
      "type": "event"
    },
    {
      "inputs": [
        {
          "internalType": "address",
          "name": "to",
          "type": "address"
        },
        {
          "internalType": "uint256",
          "name": "tokenId",
          "type": "uint256"
        }
      ],
      "name": "approve",
      "outputs": [],
      "stateMutability": "nonpayable",
      "type": "function"
    },
    {
      "inputs": [
        {
          "internalType": "address",
          "name": "owner",
          "type": "address"
        }
      ],
      "name": "balanceOf",
      "outputs": [
        {
          "internalType": "uint256",
          "name": "",
          "type": "uint256"
        }
      ],
      "stateMutability": "view",
      "type": "function"
    },
    {
      "inputs": [],
      "name": "contractAddress",
      "outputs": [
        {
          "internalType": "address",
          "name": "",
          "type": "address"
        }
      ],
      "stateMutability": "view",
      "type": "function"
    },
    {
      "inputs": [
        {
          "internalType": "uint256",
          "name": "tokenId",
          "type": "uint256"
        }
      ],
      "name": "getApproved",
      "outputs": [
        {
          "internalType": "address",
          "name": "",
          "type": "address"
        }
      ],
      "stateMutability": "view",
      "type": "function"
    },
    {
      "inputs": [
        {
          "internalType": "address",
          "name": "owner",
          "type": "address"
        },
        {
          "internalType": "address",
          "name": "operator",
          "type": "address"
        }
      ],
      "name": "isApprovedForAll",
      "outputs": [
        {
          "internalType": "bool",
          "name": "",
          "type": "bool"
        }
      ],
      "stateMutability": "view",
      "type": "function"
    },
    {
      "inputs": [
        {
          "internalType": "string",
          "name": "_tokenURI",
          "type": "string"
        }
      ],
      "name": "mintNFT",
      "outputs": [
        {
          "internalType": "uint256",
          "name": "",
          "type": "uint256"
        }
      ],
      "stateMutability": "nonpayable",
      "type": "function"
    },
    {
      "inputs": [],
      "name": "name",
      "outputs": [
        {
          "internalType": "string",
          "name": "",
          "type": "string"
        }
      ],
      "stateMutability": "view",
      "type": "function"
    },
    {
      "inputs": [
        {
          "internalType": "uint256",
          "name": "tokenId",
          "type": "uint256"
        }
      ],
      "name": "ownerOf",
      "outputs": [
        {
          "internalType": "address",
          "name": "",
          "type": "address"
        }
      ],
      "stateMutability": "view",
      "type": "function"
    },
    {
      "inputs": [
        {
          "internalType": "address",
          "name": "from",
          "type": "address"
        },
        {
          "internalType": "address",
          "name": "to",
          "type": "address"
        },
        {
          "internalType": "uint256",
          "name": "tokenId",
          "type": "uint256"
        }
      ],
      "name": "safeTransferFrom",
      "outputs": [],
      "stateMutability": "nonpayable",
      "type": "function"
    },
    {
      "inputs": [
        {
          "internalType": "address",
          "name": "from",
          "type": "address"
        },
        {
          "internalType": "address",
          "name": "to",
          "type": "address"
        },
        {
          "internalType": "uint256",
          "name": "tokenId",
          "type": "uint256"
        },
        {
          "internalType": "bytes",
          "name": "_data",
          "type": "bytes"
        }
      ],
      "name": "safeTransferFrom",
      "outputs": [],
      "stateMutability": "nonpayable",
      "type": "function"
    },
    {
      "inputs": [
        {
          "internalType": "address",
          "name": "operator",
          "type": "address"
        },
        {
          "internalType": "bool",
          "name": "approved",
          "type": "bool"
        }
      ],
      "name": "setApprovalForAll",
      "outputs": [],
      "stateMutability": "nonpayable",
      "type": "function"
    },
    {
      "inputs": [
        {
          "internalType": "bytes4",
          "name": "interfaceId",
          "type": "bytes4"
        }
      ],
      "name": "supportsInterface",
      "outputs": [
        {
          "internalType": "bool",
          "name": "",
          "type": "bool"
        }
      ],
      "stateMutability": "view",
      "type": "function"
    },
    {
      "inputs": [],
      "name": "symbol",
      "outputs": [
        {
          "internalType": "string",
          "name": "",
          "type": "string"
        }
      ],
      "stateMutability": "view",
      "type": "function"
    },
    {
      "inputs": [
        {
          "internalType": "uint256",
          "name": "tokenId",
          "type": "uint256"
        }
      ],
      "name": "tokenURI",
      "outputs": [
        {
          "internalType": "string",
          "name": "",
          "type": "string"
        }
      ],
      "stateMutability": "view",
      "type": "function"
    },
    {
      "inputs": [],
      "name": "totalSupply",
      "outputs": [
        {
          "internalType": "uint256",
          "name": "",
          "type": "uint256"
        }
      ],
      "stateMutability": "view",
      "type": "function"
    },
    {
      "inputs": [
        {
          "internalType": "address",
          "name": "from",
          "type": "address"
        },
        {
          "internalType": "address",
          "name": "to",
          "type": "address"
        },
        {
          "internalType": "uint256",
          "name": "tokenId",
          "type": "uint256"
        }
      ],
      "name": "transferFrom",
      "outputs": [],
      "stateMutability": "nonpayable",
      "type": "function"
    }
  ],
  "bytecode": "0x60806040523480156200001157600080fd5b506040516200195838038062001958833981016040819052620000349162000165565b604080518082018252600881526727232a1031b7b4b760c11b60208083019182528351808501909452600384526213919560ea1b9084015281519192916200007f91600091620000bf565b50805162000095906001906020840190620000bf565b5050600780546001600160a01b0319166001600160a01b03939093169290921790915550620001d2565b828054620000cd9062000195565b90600052602060002090601f016020900481019282620000f157600085556200013c565b82601f106200010c57805160ff19168380011785556200013c565b828001600101855582156200013c579182015b828111156200013c5782518255916020019190600101906200011f565b506200014a9291506200014e565b5090565b5b808211156200014a57600081556001016200014f565b60006020828403121562000177578081fd5b81516001600160a01b03811681146200018e578182fd5b9392505050565b600181811c90821680620001aa57607f821691505b60208210811415620001cc57634e487b7160e01b600052602260045260246000fd5b50919050565b61177680620001e26000396000f3fe608060405234801561001057600080fd5b50600436106101005760003560e01c806370a0823111610097578063c87b56dd11610066578063c87b56dd14610212578063e985e9c514610225578063f6b4dfb414610261578063fb37e8831461027457600080fd5b806370a08231146101d157806395d89b41146101e4578063a22cb465146101ec578063b88d4fde146101ff57600080fd5b806318160ddd116100d357806318160ddd1461018257806323b872dd1461019857806342842e0e146101ab5780636352211e146101be57600080fd5b806301ffc9a71461010557806306fdde031461012d578063081812fc14610142578063095ea7b31461016d575b600080fd5b610118610113366004611428565b610287565b60405190151581526020015b60405180910390f35b6101356102d9565b6040516101249190611556565b6101556101503660046114a6565b61036b565b6040516001600160a01b039091168152602001610124565b61018061017b3660046113ff565b6103f8565b005b61018a61050e565b604051908152602001610124565b6101806101a6366004611311565b61051e565b6101806101b9366004611311565b61054f565b6101556101cc3660046114a6565b61056a565b61018a6101df3660046112c5565b6105e1565b610135610668565b6101806101fa3660046113c5565b610677565b61018061020d36600461134c565b610686565b6101356102203660046114a6565b6106be565b6101186102333660046112df565b6001600160a01b03918216600090815260056020908152604080832093909416825291909152205460ff1690565b600754610155906001600160a01b031681565b61018a610282366004611460565b610835565b60006001600160e01b031982166380ac58cd60e01b14806102b857506001600160e01b03198216635b5e139f60e01b145b806102d357506301ffc9a760e01b6001600160e01b03198316145b92915050565b6060600080546102e89061167b565b80601f01602080910402602001604051908101604052809291908181526020018280546103149061167b565b80156103615780601f1061033657610100808354040283529160200191610361565b820191906000526020600020905b81548152906001019060200180831161034457829003601f168201915b5050505050905090565b60006103768261087d565b6103dc5760405162461bcd60e51b815260206004820152602c60248201527f4552433732313a20617070726f76656420717565727920666f72206e6f6e657860448201526b34b9ba32b73a103a37b5b2b760a11b60648201526084015b60405180910390fd5b506000908152600460205260409020546001600160a01b031690565b60006104038261056a565b9050806001600160a01b0316836001600160a01b031614156104715760405162461bcd60e51b815260206004820152602160248201527f4552433732313a20617070726f76616c20746f2063757272656e74206f776e656044820152603960f91b60648201526084016103d3565b336001600160a01b038216148061048d575061048d8133610233565b6104ff5760405162461bcd60e51b815260206004820152603860248201527f4552433732313a20617070726f76652063616c6c6572206973206e6f74206f7760448201527f6e6572206e6f7220617070726f76656420666f7220616c6c000000000000000060648201526084016103d3565b610509838361089a565b505050565b600061051960085490565b905090565b6105283382610908565b6105445760405162461bcd60e51b81526004016103d3906115bb565b6105098383836109ee565b61050983838360405180602001604052806000815250610686565b6000818152600260205260408120546001600160a01b0316806102d35760405162461bcd60e51b815260206004820152602960248201527f4552433732313a206f776e657220717565727920666f72206e6f6e657869737460448201526832b73a103a37b5b2b760b91b60648201526084016103d3565b60006001600160a01b03821661064c5760405162461bcd60e51b815260206004820152602a60248201527f4552433732313a2062616c616e636520717565727920666f7220746865207a65604482015269726f206164647265737360b01b60648201526084016103d3565b506001600160a01b031660009081526003602052604090205490565b6060600180546102e89061167b565b610682338383610b8e565b5050565b6106903383610908565b6106ac5760405162461bcd60e51b81526004016103d3906115bb565b6106b884848484610c5d565b50505050565b60606106c98261087d565b61072f5760405162461bcd60e51b815260206004820152603160248201527f45524337323155524953746f726167653a2055524920717565727920666f72206044820152703737b732bc34b9ba32b73a103a37b5b2b760791b60648201526084016103d3565b600082815260066020526040812080546107489061167b565b80601f01602080910402602001604051908101604052809291908181526020018280546107749061167b565b80156107c15780601f10610796576101008083540402835291602001916107c1565b820191906000526020600020905b8154815290600101906020018083116107a457829003601f168201915b5050505050905060006107df60408051602081019091526000815290565b90508051600014156107f2575092915050565b81511561082457808260405160200161080c9291906114ea565b60405160208183030381529060405292505050919050565b61082d84610c90565b949350505050565b6000610845600880546001019055565b600061085060085490565b905061085c3382610d68565b6108668184610d82565b6007546102d3906001600160a01b03166001610677565b6000908152600260205260409020546001600160a01b0316151590565b600081815260046020526040902080546001600160a01b0319166001600160a01b03841690811790915581906108cf8261056a565b6001600160a01b03167f8c5be1e5ebec7d5bd14f71427d1e84f3dd0314c0f7b2291e5b200ac8c7c3b92560405160405180910390a45050565b60006109138261087d565b6109745760405162461bcd60e51b815260206004820152602c60248201527f4552433732313a206f70657261746f7220717565727920666f72206e6f6e657860448201526b34b9ba32b73a103a37b5b2b760a11b60648201526084016103d3565b600061097f8361056a565b9050806001600160a01b0316846001600160a01b031614806109ba5750836001600160a01b03166109af8461036b565b6001600160a01b0316145b8061082d57506001600160a01b0380821660009081526005602090815260408083209388168352929052205460ff1661082d565b826001600160a01b0316610a018261056a565b6001600160a01b031614610a695760405162461bcd60e51b815260206004820152602960248201527f4552433732313a207472616e73666572206f6620746f6b656e2074686174206960448201526839903737ba1037bbb760b91b60648201526084016103d3565b6001600160a01b038216610acb5760405162461bcd60e51b8152602060048201526024808201527f4552433732313a207472616e7366657220746f20746865207a65726f206164646044820152637265737360e01b60648201526084016103d3565b610ad660008261089a565b6001600160a01b0383166000908152600360205260408120805460019290610aff908490611638565b90915550506001600160a01b0382166000908152600360205260408120805460019290610b2d90849061160c565b909155505060008181526002602052604080822080546001600160a01b0319166001600160a01b0386811691821790925591518493918716917fddf252ad1be2c89b69c2b068fc378daa952ba7f163c4a11628f55a4df523b3ef91a4505050565b816001600160a01b0316836001600160a01b03161415610bf05760405162461bcd60e51b815260206004820152601960248201527f4552433732313a20617070726f766520746f2063616c6c65720000000000000060448201526064016103d3565b6001600160a01b03838116600081815260056020908152604080832094871680845294825291829020805460ff191686151590811790915591519182527f17307eab39ab6107e8899845ad3d59bd9653f200f220920489ca2b5937696c31910160405180910390a3505050565b610c688484846109ee565b610c7484848484610e0d565b6106b85760405162461bcd60e51b81526004016103d390611569565b6060610c9b8261087d565b610cff5760405162461bcd60e51b815260206004820152602f60248201527f4552433732314d657461646174613a2055524920717565727920666f72206e6f60448201526e3732bc34b9ba32b73a103a37b5b2b760891b60648201526084016103d3565b6000610d1660408051602081019091526000815290565b90506000815111610d365760405180602001604052806000815250610d61565b80610d4084610f1a565b604051602001610d519291906114ea565b6040516020818303038152906040525b9392505050565b610682828260405180602001604052806000815250611034565b610d8b8261087d565b610dee5760405162461bcd60e51b815260206004820152602e60248201527f45524337323155524953746f726167653a2055524920736574206f66206e6f6e60448201526d32bc34b9ba32b73a103a37b5b2b760911b60648201526084016103d3565b600082815260066020908152604090912082516105099284019061119a565b60006001600160a01b0384163b15610f0f57604051630a85bd0160e11b81526001600160a01b0385169063150b7a0290610e51903390899088908890600401611519565b602060405180830381600087803b158015610e6b57600080fd5b505af1925050508015610e9b575060408051601f3d908101601f19168201909252610e9891810190611444565b60015b610ef5573d808015610ec9576040519150601f19603f3d011682016040523d82523d6000602084013e610ece565b606091505b508051610eed5760405162461bcd60e51b81526004016103d390611569565b805181602001fd5b6001600160e01b031916630a85bd0160e11b14905061082d565b506001949350505050565b606081610f3e5750506040805180820190915260018152600360fc1b602082015290565b8160005b8115610f685780610f52816116b6565b9150610f619050600a83611624565b9150610f42565b60008167ffffffffffffffff811115610f9157634e487b7160e01b600052604160045260246000fd5b6040519080825280601f01601f191660200182016040528015610fbb576020820181803683370190505b5090505b841561082d57610fd0600183611638565b9150610fdd600a866116d1565b610fe890603061160c565b60f81b81838151811061100b57634e487b7160e01b600052603260045260246000fd5b60200101906001600160f81b031916908160001a90535061102d600a86611624565b9450610fbf565b61103e8383611067565b61104b6000848484610e0d565b6105095760405162461bcd60e51b81526004016103d390611569565b6001600160a01b0382166110bd5760405162461bcd60e51b815260206004820181905260248201527f4552433732313a206d696e7420746f20746865207a65726f206164647265737360448201526064016103d3565b6110c68161087d565b156111135760405162461bcd60e51b815260206004820152601c60248201527f4552433732313a20746f6b656e20616c7265616479206d696e7465640000000060448201526064016103d3565b6001600160a01b038216600090815260036020526040812080546001929061113c90849061160c565b909155505060008181526002602052604080822080546001600160a01b0319166001600160a01b03861690811790915590518392907fddf252ad1be2c89b69c2b068fc378daa952ba7f163c4a11628f55a4df523b3ef908290a45050565b8280546111a69061167b565b90600052602060002090601f0160209004810192826111c8576000855561120e565b82601f106111e157805160ff191683800117855561120e565b8280016001018555821561120e579182015b8281111561120e5782518255916020019190600101906111f3565b5061121a92915061121e565b5090565b5b8082111561121a576000815560010161121f565b600067ffffffffffffffff8084111561124e5761124e611711565b604051601f8501601f19908116603f0116810190828211818310171561127657611276611711565b8160405280935085815286868601111561128f57600080fd5b858560208301376000602087830101525050509392505050565b80356001600160a01b03811681146112c057600080fd5b919050565b6000602082840312156112d6578081fd5b610d61826112a9565b600080604083850312156112f1578081fd5b6112fa836112a9565b9150611308602084016112a9565b90509250929050565b600080600060608486031215611325578081fd5b61132e846112a9565b925061133c602085016112a9565b9150604084013590509250925092565b60008060008060808587031215611361578081fd5b61136a856112a9565b9350611378602086016112a9565b925060408501359150606085013567ffffffffffffffff81111561139a578182fd5b8501601f810187136113aa578182fd5b6113b987823560208401611233565b91505092959194509250565b600080604083850312156113d7578182fd5b6113e0836112a9565b9150602083013580151581146113f4578182fd5b809150509250929050565b60008060408385031215611411578182fd5b61141a836112a9565b946020939093013593505050565b600060208284031215611439578081fd5b8135610d6181611727565b600060208284031215611455578081fd5b8151610d6181611727565b600060208284031215611471578081fd5b813567ffffffffffffffff811115611487578182fd5b8201601f81018413611497578182fd5b61082d84823560208401611233565b6000602082840312156114b7578081fd5b5035919050565b600081518084526114d681602086016020860161164f565b601f01601f19169290920160200192915050565b600083516114fc81846020880161164f565b83519083019061151081836020880161164f565b01949350505050565b6001600160a01b038581168252841660208201526040810183905260806060820181905260009061154c908301846114be565b9695505050505050565b602081526000610d6160208301846114be565b60208082526032908201527f4552433732313a207472616e7366657220746f206e6f6e20455243373231526560408201527131b2b4bb32b91034b6b83632b6b2b73a32b960711b606082015260800190565b60208082526031908201527f4552433732313a207472616e736665722063616c6c6572206973206e6f74206f6040820152701ddb995c881b9bdc88185c1c1c9bdd9959607a1b606082015260800190565b6000821982111561161f5761161f6116e5565b500190565b600082611633576116336116fb565b500490565b60008282101561164a5761164a6116e5565b500390565b60005b8381101561166a578181015183820152602001611652565b838111156106b85750506000910152565b600181811c9082168061168f57607f821691505b602082108114156116b057634e487b7160e01b600052602260045260246000fd5b50919050565b60006000198214156116ca576116ca6116e5565b5060010190565b6000826116e0576116e06116fb565b500690565b634e487b7160e01b600052601160045260246000fd5b634e487b7160e01b600052601260045260246000fd5b634e487b7160e01b600052604160045260246000fd5b6001600160e01b03198116811461173d57600080fd5b5056fea26469706673582212202f99a7fa3203ac6d0792edb076408c1a40b925e6f157966fa8c4deb32c9b4a2964736f6c63430008040033",
  "linkReferences": {},
  "deployedLinkReferences": {}
}