{
  "_format": "hh-sol-artifact-1",
  "contractName": "NftFractionsRepository",
  "sourceName": "contracts/NftFractionsRepository.sol",
  "abi": [
    {
      "anonymous": false,
      "inputs": [
        {
          "indexed": true,
          "internalType": "address",
          "name": "account",
          "type": "address"
        },
        {
          "indexed": true,
          "internalType": "address",
          "name": "operator",
          "type": "address"
        },
        {
          "indexed": false,
          "internalType": "bool",
          "name": "approved",
          "type": "bool"
        }
      ],
      "name": "ApprovalForAll",
      "type": "event"
    },
    {
      "anonymous": false,
      "inputs": [
        {
          "indexed": false,
          "internalType": "uint256",
          "name": "erc1155TokenId",
          "type": "uint256"
        },
        {
          "indexed": false,
          "internalType": "address",
          "name": "erc721ContractAddress",
          "type": "address"
        },
        {
          "indexed": false,
          "internalType": "uint256",
          "name": "erc721TokenId",
          "type": "uint256"
        },
        {
          "indexed": false,
          "internalType": "uint256",
          "name": "totalFractionsAmount",
          "type": "uint256"
        },
        {
          "indexed": false,
          "internalType": "string",
          "name": "tokenURI",
          "type": "string"
        }
      ],
      "name": "DepositNft",
      "type": "event"
    },
    {
      "anonymous": false,
      "inputs": [
        {
          "indexed": true,
          "internalType": "address",
          "name": "previousOwner",
          "type": "address"
        },
        {
          "indexed": true,
          "internalType": "address",
          "name": "newOwner",
          "type": "address"
        }
      ],
      "name": "OwnershipTransferred",
      "type": "event"
    },
    {
      "anonymous": false,
      "inputs": [
        {
          "indexed": false,
          "internalType": "address",
          "name": "account",
          "type": "address"
        }
      ],
      "name": "Paused",
      "type": "event"
    },
    {
      "anonymous": false,
      "inputs": [
        {
          "indexed": true,
          "internalType": "address",
          "name": "operator",
          "type": "address"
        },
        {
          "indexed": true,
          "internalType": "address",
          "name": "from",
          "type": "address"
        },
        {
          "indexed": true,
          "internalType": "address",
          "name": "to",
          "type": "address"
        },
        {
          "indexed": false,
          "internalType": "uint256[]",
          "name": "ids",
          "type": "uint256[]"
        },
        {
          "indexed": false,
          "internalType": "uint256[]",
          "name": "values",
          "type": "uint256[]"
        }
      ],
      "name": "TransferBatch",
      "type": "event"
    },
    {
      "anonymous": false,
      "inputs": [
        {
          "indexed": true,
          "internalType": "address",
          "name": "operator",
          "type": "address"
        },
        {
          "indexed": true,
          "internalType": "address",
          "name": "from",
          "type": "address"
        },
        {
          "indexed": true,
          "internalType": "address",
          "name": "to",
          "type": "address"
        },
        {
          "indexed": false,
          "internalType": "uint256",
          "name": "id",
          "type": "uint256"
        },
        {
          "indexed": false,
          "internalType": "uint256",
          "name": "value",
          "type": "uint256"
        }
      ],
      "name": "TransferSingle",
      "type": "event"
    },
    {
      "anonymous": false,
      "inputs": [
        {
          "indexed": false,
          "internalType": "string",
          "name": "value",
          "type": "string"
        },
        {
          "indexed": true,
          "internalType": "uint256",
          "name": "id",
          "type": "uint256"
        }
      ],
      "name": "URI",
      "type": "event"
    },
    {
      "anonymous": false,
      "inputs": [
        {
          "indexed": false,
          "internalType": "address",
          "name": "account",
          "type": "address"
        }
      ],
      "name": "Unpaused",
      "type": "event"
    },
    {
      "anonymous": false,
      "inputs": [
        {
          "indexed": false,
          "internalType": "uint256",
          "name": "erc1155TokenId",
          "type": "uint256"
        },
        {
          "indexed": false,
          "internalType": "address",
          "name": "erc721ContractAddress",
          "type": "address"
        },
        {
          "indexed": false,
          "internalType": "uint256",
          "name": "erc721TokenId",
          "type": "uint256"
        }
      ],
      "name": "WithdrawNft",
      "type": "event"
    },
    {
      "inputs": [
        {
          "internalType": "address",
          "name": "account",
          "type": "address"
        },
        {
          "internalType": "uint256",
          "name": "id",
          "type": "uint256"
        }
      ],
      "name": "balanceOf",
      "outputs": [
        {
          "internalType": "uint256",
          "name": "",
          "type": "uint256"
        }
      ],
      "stateMutability": "view",
      "type": "function"
    },
    {
      "inputs": [
        {
          "internalType": "address[]",
          "name": "accounts",
          "type": "address[]"
        },
        {
          "internalType": "uint256[]",
          "name": "ids",
          "type": "uint256[]"
        }
      ],
      "name": "balanceOfBatch",
      "outputs": [
        {
          "internalType": "uint256[]",
          "name": "",
          "type": "uint256[]"
        }
      ],
      "stateMutability": "view",
      "type": "function"
    },
    {
      "inputs": [
        {
          "internalType": "uint256",
          "name": "tokenId",
          "type": "uint256"
        },
        {
          "internalType": "uint256",
          "name": "amount",
          "type": "uint256"
        },
        {
          "internalType": "address",
          "name": "transferer",
          "type": "address"
        }
      ],
      "name": "burn",
      "outputs": [],
      "stateMutability": "nonpayable",
      "type": "function"
    },
    {
      "inputs": [
        {
          "internalType": "address",
          "name": "erc721ContractAddress",
          "type": "address"
        },
        {
          "internalType": "uint256",
          "name": "erc721TokenId",
          "type": "uint256"
        },
        {
          "internalType": "uint256",
          "name": "fractionsAmountToMint",
          "type": "uint256"
        }
      ],
      "name": "depositNft",
      "outputs": [],
      "stateMutability": "nonpayable",
      "type": "function"
    },
    {
      "inputs": [
        {
          "internalType": "uint256",
          "name": "_tokenId",
          "type": "uint256"
        }
      ],
      "name": "getErc721ContractAddress",
      "outputs": [
        {
          "internalType": "address",
          "name": "",
          "type": "address"
        }
      ],
      "stateMutability": "view",
      "type": "function"
    },
    {
      "inputs": [
        {
          "internalType": "uint256",
          "name": "_tokenId",
          "type": "uint256"
        }
      ],
      "name": "getTokenData",
      "outputs": [
        {
          "internalType": "address",
          "name": "erc721ContractAddress",
          "type": "address"
        },
        {
          "internalType": "uint256",
          "name": "erc721TokenId",
          "type": "uint256"
        },
        {
          "internalType": "uint256",
          "name": "totalFractionsAmount",
          "type": "uint256"
        },
        {
          "internalType": "string",
          "name": "tokenURI",
          "type": "string"
        }
      ],
      "stateMutability": "view",
      "type": "function"
    },
    {
      "inputs": [
        {
          "internalType": "uint256",
          "name": "_tokenId",
          "type": "uint256"
        }
      ],
      "name": "getTotalFractionsAmount",
      "outputs": [
        {
          "internalType": "uint256",
          "name": "",
          "type": "uint256"
        }
      ],
      "stateMutability": "view",
      "type": "function"
    },
    {
      "inputs": [
        {
          "internalType": "string",
          "name": "uri_",
          "type": "string"
        }
      ],
      "name": "initialize",
      "outputs": [],
      "stateMutability": "nonpayable",
      "type": "function"
    },
    {
      "inputs": [
        {
          "internalType": "address",
          "name": "account",
          "type": "address"
        },
        {
          "internalType": "address",
          "name": "operator",
          "type": "address"
        }
      ],
      "name": "isApprovedForAll",
      "outputs": [
        {
          "internalType": "bool",
          "name": "",
          "type": "bool"
        }
      ],
      "stateMutability": "view",
      "type": "function"
    },
    {
      "inputs": [
        {
          "internalType": "address",
          "name": "erc721ContractAddress",
          "type": "address"
        },
        {
          "internalType": "uint256",
          "name": "erc721TokenId",
          "type": "uint256"
        },
        {
          "internalType": "uint256",
          "name": "erc1155TokenId",
          "type": "uint256"
        },
        {
          "internalType": "uint256",
          "name": "erc1155Amount",
          "type": "uint256"
        },
        {
          "internalType": "uint256",
          "name": "totalFractionsAmount",
          "type": "uint256"
        },
        {
          "internalType": "address",
          "name": "transferer",
          "type": "address"
        },
        {
          "internalType": "string",
          "name": "tokenURI",
          "type": "string"
        }
      ],
      "name": "mint",
      "outputs": [],
      "stateMutability": "nonpayable",
      "type": "function"
    },
    {
      "inputs": [],
      "name": "owner",
      "outputs": [
        {
          "internalType": "address",
          "name": "",
          "type": "address"
        }
      ],
      "stateMutability": "view",
      "type": "function"
    },
    {
      "inputs": [],
      "name": "pause",
      "outputs": [],
      "stateMutability": "nonpayable",
      "type": "function"
    },
    {
      "inputs": [],
      "name": "paused",
      "outputs": [
        {
          "internalType": "bool",
          "name": "",
          "type": "bool"
        }
      ],
      "stateMutability": "view",
      "type": "function"
    },
    {
      "inputs": [],
      "name": "renounceOwnership",
      "outputs": [],
      "stateMutability": "nonpayable",
      "type": "function"
    },
    {
      "inputs": [
        {
          "internalType": "address",
          "name": "from",
          "type": "address"
        },
        {
          "internalType": "address",
          "name": "to",
          "type": "address"
        },
        {
          "internalType": "uint256[]",
          "name": "ids",
          "type": "uint256[]"
        },
        {
          "internalType": "uint256[]",
          "name": "amounts",
          "type": "uint256[]"
        },
        {
          "internalType": "bytes",
          "name": "data",
          "type": "bytes"
        }
      ],
      "name": "safeBatchTransferFrom",
      "outputs": [],
      "stateMutability": "nonpayable",
      "type": "function"
    },
    {
      "inputs": [
        {
          "internalType": "address",
          "name": "from",
          "type": "address"
        },
        {
          "internalType": "address",
          "name": "to",
          "type": "address"
        },
        {
          "internalType": "uint256",
          "name": "id",
          "type": "uint256"
        },
        {
          "internalType": "uint256",
          "name": "amount",
          "type": "uint256"
        },
        {
          "internalType": "bytes",
          "name": "data",
          "type": "bytes"
        }
      ],
      "name": "safeTransferFrom",
      "outputs": [],
      "stateMutability": "nonpayable",
      "type": "function"
    },
    {
      "inputs": [
        {
          "internalType": "address",
          "name": "operator",
          "type": "address"
        },
        {
          "internalType": "bool",
          "name": "approved",
          "type": "bool"
        }
      ],
      "name": "setApprovalForAll",
      "outputs": [],
      "stateMutability": "nonpayable",
      "type": "function"
    },
    {
      "inputs": [
        {
          "internalType": "bytes4",
          "name": "interfaceId",
          "type": "bytes4"
        }
      ],
      "name": "supportsInterface",
      "outputs": [
        {
          "internalType": "bool",
          "name": "",
          "type": "bool"
        }
      ],
      "stateMutability": "view",
      "type": "function"
    },
    {
      "inputs": [
        {
          "internalType": "address",
          "name": "from",
          "type": "address"
        },
        {
          "internalType": "address",
          "name": "to",
          "type": "address"
        },
        {
          "internalType": "uint256",
          "name": "id",
          "type": "uint256"
        },
        {
          "internalType": "uint256",
          "name": "amount",
          "type": "uint256"
        },
        {
          "internalType": "bytes",
          "name": "data",
          "type": "bytes"
        }
      ],
      "name": "transferFrom",
      "outputs": [],
      "stateMutability": "nonpayable",
      "type": "function"
    },
    {
      "inputs": [
        {
          "internalType": "address",
          "name": "newOwner",
          "type": "address"
        }
      ],
      "name": "transferOwnership",
      "outputs": [],
      "stateMutability": "nonpayable",
      "type": "function"
    },
    {
      "inputs": [
        {
          "internalType": "uint256",
          "name": "",
          "type": "uint256"
        }
      ],
      "name": "uri",
      "outputs": [
        {
          "internalType": "string",
          "name": "",
          "type": "string"
        }
      ],
      "stateMutability": "view",
      "type": "function"
    },
    {
      "inputs": [
        {
          "internalType": "uint256",
          "name": "tokenId",
          "type": "uint256"
        }
      ],
      "name": "withdrawNft",
      "outputs": [],
      "stateMutability": "payable",
      "type": "function"
    }
  ],
  "bytecode": "0x608060405234801561001057600080fd5b50612984806100206000396000f3fe6080604052600436106101345760003560e01c80638456cb59116100ab578063b09afec11161006f578063b09afec114610389578063e09a3cb4146103b9578063e985e9c5146103d9578063f242432a14610422578063f2fde38b14610442578063f62d18881461046257600080fd5b80638456cb59146103035780638da5cb5b14610318578063910efae814610336578063971a584714610349578063a22cb4651461036957600080fd5b80634e1273f4116100fd5780634e1273f41461021b5780635c975abb14610248578063605105f01461026057806366d0330c14610280578063715018a6146102ce578063749388c4146102e357600080fd5b8062fdd58e1461013957806301ffc9a71461016c5780630e89341c1461019c5780632eb2c2d6146101c957806333d59207146101eb575b600080fd5b34801561014557600080fd5b506101596101543660046120b5565b610482565b6040519081526020015b60405180910390f35b34801561017857600080fd5b5061018c610187366004612268565b61051b565b6040519015158152602001610163565b3480156101a857600080fd5b506101bc6101b7366004612359565b61056d565b6040516101639190612520565b3480156101d557600080fd5b506101e96101e4366004611f73565b610601565b005b3480156101f757600080fd5b50610159610206366004612359565b600090815260fb602052604090206002015490565b34801561022757600080fd5b5061023b61023636600461219b565b610698565b60405161016391906124df565b34801561025457600080fd5b5060975460ff1661018c565b34801561026c57600080fd5b506101e961027b36600461201d565b6107fa565b34801561028c57600080fd5b506102b661029b366004612359565b600090815260fb60205260409020546001600160a01b031690565b6040516001600160a01b039091168152602001610163565b3480156102da57600080fd5b506101e961084f565b3480156102ef57600080fd5b506101e96102fe366004612371565b610885565b34801561030f57600080fd5b506101e9610941565b34801561032457600080fd5b5060c9546001600160a01b03166102b6565b6101e9610344366004612359565b610973565b34801561035557600080fd5b506101e9610364366004612114565b610b53565b34801561037557600080fd5b506101e9610384366004612084565b610c8d565b34801561039557600080fd5b506103a96103a4366004612359565b610c9c565b60405161016394939291906124b2565b3480156103c557600080fd5b506101e96103d43660046120e0565b610d6c565b3480156103e557600080fd5b5061018c6103f4366004611f3b565b6001600160a01b03918216600090815260666020908152604080832093909416825291909152205460ff1690565b34801561042e57600080fd5b506101e961043d36600461201d565b611077565b34801561044e57600080fd5b506101e961045d366004611efc565b6110fe565b34801561046e57600080fd5b506101e961047d3660046122a0565b611199565b60006001600160a01b0383166104f35760405162461bcd60e51b815260206004820152602b60248201527f455243313135353a2062616c616e636520717565727920666f7220746865207a60448201526a65726f206164647265737360a81b60648201526084015b60405180910390fd5b5060009081526065602090815260408083206001600160a01b03949094168352929052205490565b60006001600160e01b03198216636cdb3d1360e11b148061054c57506001600160e01b031982166303a24d0760e21b145b8061056757506301ffc9a760e01b6001600160e01b03198316145b92915050565b60606067805461057c906127d2565b80601f01602080910402602001604051908101604052809291908181526020018280546105a8906127d2565b80156105f55780601f106105ca576101008083540402835291602001916105f5565b820191906000526020600020905b8154815290600101906020018083116105d857829003601f168201915b50505050509050919050565b6001600160a01b03851633148061061d575061061d85336103f4565b6106845760405162461bcd60e51b815260206004820152603260248201527f455243313135353a207472616e736665722063616c6c6572206973206e6f74206044820152711bdddb995c881b9bdc88185c1c1c9bdd995960721b60648201526084016104ea565b6106918585858585611214565b5050505050565b606081518351146106fd5760405162461bcd60e51b815260206004820152602960248201527f455243313135353a206163636f756e747320616e6420696473206c656e677468604482015268040dad2e6dac2e8c6d60bb1b60648201526084016104ea565b6000835167ffffffffffffffff81111561072757634e487b7160e01b600052604160045260246000fd5b604051908082528060200260200182016040528015610750578160200160208202803683370190505b50905060005b84518110156107f2576107b785828151811061078257634e487b7160e01b600052603260045260246000fd5b60200260200101518583815181106107aa57634e487b7160e01b600052603260045260246000fd5b6020026020010151610482565b8282815181106107d757634e487b7160e01b600052603260045260246000fd5b60209081029190910101526107eb8161283a565b9050610756565b509392505050565b60975460ff161561081d5760405162461bcd60e51b81526004016104ea906126d8565b60006108298685610482565b905060006108378686610482565b90506108468787878787611077565b50505050505050565b60c9546001600160a01b031633146108795760405162461bcd60e51b81526004016104ea90612658565b6108836000611410565b565b60c9546001600160a01b031633146108af5760405162461bcd60e51b81526004016104ea90612658565b60975460ff16156108d25760405162461bcd60e51b81526004016104ea906126d8565b60006108de8285610482565b9050828110156109305760405162461bcd60e51b815260206004820152601860248201527f68617320746f206f776e20657175616c206f72206d6f7265000000000000000060448201526064016104ea565b61093b828585611462565b50505050565b60c9546001600160a01b0316331461096b5760405162461bcd60e51b81526004016104ea90612658565b6108836115e0565b60975460ff16156109965760405162461bcd60e51b81526004016104ea906126d8565b600081815260fb602090815260408083206002810154815460019092015460fc90945282852054925190946001600160a01b0392831694938593919283929091169034908381818185875af1925050503d8060008114610a12576040519150601f19603f3d011682016040523d82523d6000602084013e610a17565b606091505b509150915081610a605760405162461bcd60e51b81526020600482015260146024820152732330b4b632b2103a379039b2b7321022ba3432b960611b60448201526064016104ea565b6040516323b872dd60e01b8152306004820152336024820152604481018590526001600160a01b038416906323b872dd90606401600060405180830381600087803b158015610aae57600080fd5b505af1158015610ac2573d6000803e3d6000fd5b505050600088815260fb6020526040812080546001600160a01b031916815560018101829055600281018290559150610afe6003830182611d5e565b5050604080518881526001600160a01b03871660208201529081018590527f93099f51c64ef1232856a1b30fa669561cf1d6a628ef780bb9ed4f6872c36fff906060015b60405180910390a150505050505050565b60c9546001600160a01b03163314610b7d5760405162461bcd60e51b81526004016104ea90612658565b60975460ff1615610ba05760405162461bcd60e51b81526004016104ea906126d8565b610bbb82868660405180602001604052806000815250611678565b600085815260fb60205260409020546001906001600160a01b0316610c8357610c0e604051806080016040528060006001600160a01b031681526020016000815260200160008152602001606081525090565b6001600160a01b03898116825260208083018a815260408085018981526060860188815260008d815260fb865292909220865181546001600160a01b03191696169590951785559151600185015590516002840155518051849392610c7a926003850192910190611d98565b50600093505050505b5050505050505050565b610c98338383611784565b5050565b600081815260fb6020526040812080546001820154600283015460039093018054859485946060946001600160a01b039091169390928190610cdd906127d2565b80601f0160208091040260200160405190810160405280929190818152602001828054610d09906127d2565b8015610d565780601f10610d2b57610100808354040283529160200191610d56565b820191906000526020600020905b815481529060010190602001808311610d3957829003601f168201915b5050505050905093509350935093509193509193565b60975460ff1615610d8f5760405162461bcd60e51b81526004016104ea906126d8565b6040516331a9108f60e11b815260048101839052839033906001600160a01b03831690636352211e9060240160206040518083038186803b158015610dd357600080fd5b505afa158015610de7573d6000803e3d6000fd5b505050506040513d601f19601f82011682018060405250810190610e0b9190611f1f565b6001600160a01b031614610e615760405162461bcd60e51b815260206004820152601f60248201527f6d73672073656e6465722068617320746f206f776e2074686520746f6b656e0060448201526064016104ea565b6040516323b872dd60e01b8152336004820152306024820152604481018490526001600160a01b038216906323b872dd90606401600060405180830381600087803b158015610eaf57600080fd5b505af1158015610ec3573d6000803e3d6000fd5b50505050610ed560fd80546001019055565b6000610ee060fd5490565b9050610efd33828560405180602001604052806000815250611678565b60405163c87b56dd60e01b8152600481018590526060906001600160a01b0384169063c87b56dd9060240160006040518083038186803b158015610f4057600080fd5b505afa158015610f54573d6000803e3d6000fd5b505050506040513d6000823e601f3d908101601f19168201604052610f7c91908101906122db565b9050610fb2604051806080016040528060006001600160a01b031681526020016000815260200160008152602001606081525090565b6001600160a01b0387811682526020808301888152604080850189815260608601878152600089815260fb865292909220865181546001600160a01b0319169616959095178555915160018501559051600284015551805184939261101e926003850192910190611d98565b505050600086815260fc60205260409081902080546001600160a01b03191633179055517fc418f7a91f366be09b65548b396e0f63940f86274faace87fe5e604acd5f43c990610b429085908a908a908a90889061270f565b6001600160a01b038516331480611093575061109385336103f4565b6110f15760405162461bcd60e51b815260206004820152602960248201527f455243313135353a2063616c6c6572206973206e6f74206f776e6572206e6f7260448201526808185c1c1c9bdd995960ba1b60648201526084016104ea565b6106918585858585611865565b60c9546001600160a01b031633146111285760405162461bcd60e51b81526004016104ea90612658565b6001600160a01b03811661118d5760405162461bcd60e51b815260206004820152602660248201527f4f776e61626c653a206e6577206f776e657220697320746865207a65726f206160448201526564647265737360d01b60648201526084016104ea565b61119681611410565b50565b600054610100900460ff166111b45760005460ff16156111b8565b303b155b6111d45760405162461bcd60e51b81526004016104ea906125c0565b600054610100900460ff161580156111f6576000805461ffff19166101011790555b6111ff8261197d565b8015610c98576000805461ff00191690555050565b81518351146112765760405162461bcd60e51b815260206004820152602860248201527f455243313135353a2069647320616e6420616d6f756e7473206c656e677468206044820152670dad2e6dac2e8c6d60c31b60648201526084016104ea565b6001600160a01b03841661129c5760405162461bcd60e51b81526004016104ea9061257b565b3360005b84518110156113a25760008582815181106112cb57634e487b7160e01b600052603260045260246000fd5b6020026020010151905060008583815181106112f757634e487b7160e01b600052603260045260246000fd5b60209081029190910181015160008481526065835260408082206001600160a01b038e1683529093529190912054909150818110156113485760405162461bcd60e51b81526004016104ea9061260e565b60008381526065602090815260408083206001600160a01b038e8116855292528083208585039055908b1682528120805484929061138790849061278e565b925050819055505050508061139b9061283a565b90506112a0565b50846001600160a01b0316866001600160a01b0316826001600160a01b03167f4a39dc06d4c0dbc64b70af90fd698a233a518aa5d07e595d983b8c0526c8f7fb87876040516113f29291906124f2565b60405180910390a4611408818787878787611a03565b505050505050565b60c980546001600160a01b038381166001600160a01b0319831681179093556040519116919082907f8be0079c531659141344cd1fd0a4f28419497f9722a3daafe3b4186f6b6457e090600090a35050565b6001600160a01b0383166114c45760405162461bcd60e51b815260206004820152602360248201527f455243313135353a206275726e2066726f6d20746865207a65726f206164647260448201526265737360e81b60648201526084016104ea565b336114f4818560006114d587611b6e565b6114de87611b6e565b5050604080516020810190915260009052505050565b60008381526065602090815260408083206001600160a01b0388168452909152902054828110156115735760405162461bcd60e51b8152602060048201526024808201527f455243313135353a206275726e20616d6f756e7420657863656564732062616c604482015263616e636560e01b60648201526084016104ea565b60008481526065602090815260408083206001600160a01b03898116808652918452828520888703905582518981529384018890529092908616917fc3d58168c5ae7397731d063d5bbf3d657854427343f4c083240f7aacaa2d0f62910160405180910390a45050505050565b60975460ff16156116265760405162461bcd60e51b815260206004820152601060248201526f14185d5cd8589b194e881c185d5cd95960821b60448201526064016104ea565b6097805460ff191660011790557f62e78cea01bee320cd4e420270b5ea74000d11b0c9f74754ebdbfc544b05a25861165b3390565b6040516001600160a01b03909116815260200160405180910390a1565b6001600160a01b0384166116d85760405162461bcd60e51b815260206004820152602160248201527f455243313135353a206d696e7420746f20746865207a65726f206164647265736044820152607360f81b60648201526084016104ea565b336116f2816000876116e988611b6e565b61069188611b6e565b60008481526065602090815260408083206001600160a01b03891684529091528120805485929061172490849061278e565b909155505060408051858152602081018590526001600160a01b0380881692600092918516917fc3d58168c5ae7397731d063d5bbf3d657854427343f4c083240f7aacaa2d0f62910160405180910390a461069181600087878787611bc7565b816001600160a01b0316836001600160a01b031614156117f85760405162461bcd60e51b815260206004820152602960248201527f455243313135353a2073657474696e6720617070726f76616c20737461747573604482015268103337b91039b2b63360b91b60648201526084016104ea565b6001600160a01b03838116600081815260666020908152604080832094871680845294825291829020805460ff191686151590811790915591519182527f17307eab39ab6107e8899845ad3d59bd9653f200f220920489ca2b5937696c31910160405180910390a3505050565b6001600160a01b03841661188b5760405162461bcd60e51b81526004016104ea9061257b565b3361189b8187876116e988611b6e565b60008481526065602090815260408083206001600160a01b038a168452909152902054838110156118de5760405162461bcd60e51b81526004016104ea9061260e565b60008581526065602090815260408083206001600160a01b038b811685529252808320878503905590881682528120805486929061191d90849061278e565b909155505060408051868152602081018690526001600160a01b03808916928a821692918616917fc3d58168c5ae7397731d063d5bbf3d657854427343f4c083240f7aacaa2d0f62910160405180910390a4610846828888888888611bc7565b600054610100900460ff166119985760005460ff161561199c565b303b155b6119b85760405162461bcd60e51b81526004016104ea906125c0565b600054610100900460ff161580156119da576000805461ffff19166101011790555b6119e2611c91565b6119ea611c91565b6119f2611cb8565b6119fb82611ceb565b6111ff611d1b565b6001600160a01b0384163b156114085760405163bc197c8160e01b81526001600160a01b0385169063bc197c8190611a47908990899088908890889060040161240f565b602060405180830381600087803b158015611a6157600080fd5b505af1925050508015611a91575060408051601f3d908101601f19168201909252611a8e91810190612284565b60015b611b3e57611a9d612881565b806308c379a01415611ad75750611ab2612899565b80611abd5750611ad9565b8060405162461bcd60e51b81526004016104ea9190612520565b505b60405162461bcd60e51b815260206004820152603460248201527f455243313135353a207472616e7366657220746f206e6f6e20455243313135356044820152732932b1b2b4bb32b91034b6b83632b6b2b73a32b960611b60648201526084016104ea565b6001600160e01b0319811663bc197c8160e01b146108465760405162461bcd60e51b81526004016104ea90612533565b60408051600180825281830190925260609160009190602080830190803683370190505090508281600081518110611bb657634e487b7160e01b600052603260045260246000fd5b602090810291909101015292915050565b6001600160a01b0384163b156114085760405163f23a6e6160e01b81526001600160a01b0385169063f23a6e6190611c0b908990899088908890889060040161246d565b602060405180830381600087803b158015611c2557600080fd5b505af1925050508015611c55575060408051601f3d908101601f19168201909252611c5291810190612284565b60015b611c6157611a9d612881565b6001600160e01b0319811663f23a6e6160e01b146108465760405162461bcd60e51b81526004016104ea90612533565b600054610100900460ff166108835760405162461bcd60e51b81526004016104ea9061268d565b600054610100900460ff16611cdf5760405162461bcd60e51b81526004016104ea9061268d565b6097805460ff19169055565b600054610100900460ff16611d125760405162461bcd60e51b81526004016104ea9061268d565b61119681611d4b565b600054610100900460ff16611d425760405162461bcd60e51b81526004016104ea9061268d565b61088333611410565b8051610c98906067906020840190611d98565b508054611d6a906127d2565b6000825580601f10611d7a575050565b601f0160209004906000526020600020908101906111969190611e1c565b828054611da4906127d2565b90600052602060002090601f016020900481019282611dc65760008555611e0c565b82601f10611ddf57805160ff1916838001178555611e0c565b82800160010185558215611e0c579182015b82811115611e0c578251825591602001919060010190611df1565b50611e18929150611e1c565b5090565b5b80821115611e185760008155600101611e1d565b600082601f830112611e41578081fd5b81356020611e4e82612742565b604051611e5b828261280d565b8381528281019150858301600585901b87018401881015611e7a578586fd5b855b85811015611e9857813584529284019290840190600101611e7c565b5090979650505050505050565b600082601f830112611eb5578081fd5b8135611ec081612766565b604051611ecd828261280d565b828152856020848701011115611ee1578384fd5b82602086016020830137918201602001929092529392505050565b600060208284031215611f0d578081fd5b8135611f1881612923565b9392505050565b600060208284031215611f30578081fd5b8151611f1881612923565b60008060408385031215611f4d578081fd5b8235611f5881612923565b91506020830135611f6881612923565b809150509250929050565b600080600080600060a08688031215611f8a578081fd5b8535611f9581612923565b94506020860135611fa581612923565b9350604086013567ffffffffffffffff80821115611fc1578283fd5b611fcd89838a01611e31565b94506060880135915080821115611fe2578283fd5b611fee89838a01611e31565b93506080880135915080821115612003578283fd5b5061201088828901611ea5565b9150509295509295909350565b600080600080600060a08688031215612034578081fd5b853561203f81612923565b9450602086013561204f81612923565b93506040860135925060608601359150608086013567ffffffffffffffff811115612078578182fd5b61201088828901611ea5565b60008060408385031215612096578182fd5b82356120a181612923565b915060208301358015158114611f68578182fd5b600080604083850312156120c7578182fd5b82356120d281612923565b946020939093013593505050565b6000806000606084860312156120f4578081fd5b83356120ff81612923565b95602085013595506040909401359392505050565b600080600080600080600060e0888a03121561212e578485fd5b873561213981612923565b96506020880135955060408801359450606088013593506080880135925060a088013561216581612923565b915060c088013567ffffffffffffffff811115612180578182fd5b61218c8a828b01611ea5565b91505092959891949750929550565b600080604083850312156121ad578182fd5b823567ffffffffffffffff808211156121c4578384fd5b818501915085601f8301126121d7578384fd5b813560206121e482612742565b6040516121f1828261280d565b8381528281019150858301600585901b870184018b1015612210578889fd5b8896505b8487101561223b57803561222781612923565b835260019690960195918301918301612214565b5096505086013592505080821115612251578283fd5b5061225e85828601611e31565b9150509250929050565b600060208284031215612279578081fd5b8135611f1881612938565b600060208284031215612295578081fd5b8151611f1881612938565b6000602082840312156122b1578081fd5b813567ffffffffffffffff8111156122c7578182fd5b6122d384828501611ea5565b949350505050565b6000602082840312156122ec578081fd5b815167ffffffffffffffff811115612302578182fd5b8201601f81018413612312578182fd5b805161231d81612766565b60405161232a828261280d565b82815286602084860101111561233e578485fd5b61234f8360208301602087016127a6565b9695505050505050565b60006020828403121561236a578081fd5b5035919050565b600080600060608486031215612385578081fd5b8335925060208401359150604084013561239e81612923565b809150509250925092565b6000815180845260208085019450808401835b838110156123d8578151875295820195908201906001016123bc565b509495945050505050565b600081518084526123fb8160208601602086016127a6565b601f01601f19169290920160200192915050565b6001600160a01b0386811682528516602082015260a06040820181905260009061243b908301866123a9565b828103606084015261244d81866123a9565b9050828103608084015261246181856123e3565b98975050505050505050565b6001600160a01b03868116825285166020820152604081018490526060810183905260a0608082018190526000906124a7908301846123e3565b979650505050505050565b60018060a01b038516815283602082015282604082015260806060820152600061234f60808301846123e3565b602081526000611f1860208301846123a9565b60408152600061250560408301856123a9565b828103602084015261251781856123a9565b95945050505050565b602081526000611f1860208301846123e3565b60208082526028908201527f455243313135353a204552433131353552656365697665722072656a656374656040820152676420746f6b656e7360c01b606082015260800190565b60208082526025908201527f455243313135353a207472616e7366657220746f20746865207a65726f206164604082015264647265737360d81b606082015260800190565b6020808252602e908201527f496e697469616c697a61626c653a20636f6e747261637420697320616c72656160408201526d191e481a5b9a5d1a585b1a5e995960921b606082015260800190565b6020808252602a908201527f455243313135353a20696e73756666696369656e742062616c616e636520666f60408201526939103a3930b739b332b960b11b606082015260800190565b6020808252818101527f4f776e61626c653a2063616c6c6572206973206e6f7420746865206f776e6572604082015260600190565b6020808252602b908201527f496e697469616c697a61626c653a20636f6e7472616374206973206e6f74206960408201526a6e697469616c697a696e6760a81b606082015260800190565b60208082526018908201527f4e6f7420616c6c6f776564207768696c65207061757365640000000000000000604082015260600190565b85815260018060a01b038516602082015283604082015282606082015260a0608082015260006124a760a08301846123e3565b600067ffffffffffffffff82111561275c5761275c61286b565b5060051b60200190565b600067ffffffffffffffff8211156127805761278061286b565b50601f01601f191660200190565b600082198211156127a1576127a1612855565b500190565b60005b838110156127c15781810151838201526020016127a9565b8381111561093b5750506000910152565b600181811c908216806127e657607f821691505b6020821081141561280757634e487b7160e01b600052602260045260246000fd5b50919050565b601f8201601f1916810167ffffffffffffffff811182821017156128335761283361286b565b6040525050565b600060001982141561284e5761284e612855565b5060010190565b634e487b7160e01b600052601160045260246000fd5b634e487b7160e01b600052604160045260246000fd5b600060033d111561289657600481823e5160e01c5b90565b600060443d10156128a75790565b6040516003193d81016004833e81513d67ffffffffffffffff81602484011181841117156128d757505050505090565b82850191508151818111156128ef5750505050505090565b843d87010160208285010111156129095750505050505090565b6129186020828601018761280d565b509095945050505050565b6001600160a01b038116811461119657600080fd5b6001600160e01b03198116811461119657600080fdfea2646970667358221220e236088b45e28531c3dbacae96ed98e18af4471a348b841bd6fafb676544c75b64736f6c63430008040033",
  "linkReferences": {},
  "deployedLinkReferences": {}
}