{
  "_format": "hh-sol-artifact-1",
  "contractName": "NftFractionsRepository",
  "sourceName": "contracts/NftFractionsRepository.sol",
  "abi": [
    {
      "anonymous": false,
      "inputs": [
        {
          "indexed": true,
          "internalType": "address",
          "name": "account",
          "type": "address"
        },
        {
          "indexed": true,
          "internalType": "address",
          "name": "operator",
          "type": "address"
        },
        {
          "indexed": false,
          "internalType": "bool",
          "name": "approved",
          "type": "bool"
        }
      ],
      "name": "ApprovalForAll",
      "type": "event"
    },
    {
      "anonymous": false,
      "inputs": [
        {
          "indexed": false,
          "internalType": "uint256",
          "name": "erc1155TokenId",
          "type": "uint256"
        },
        {
          "indexed": false,
          "internalType": "address",
          "name": "erc721ContractAddress",
          "type": "address"
        },
        {
          "indexed": false,
          "internalType": "uint256",
          "name": "erc721TokenId",
          "type": "uint256"
        },
        {
          "indexed": false,
          "internalType": "uint256",
          "name": "totalFractionsAmount",
          "type": "uint256"
        },
        {
          "indexed": false,
          "internalType": "string",
          "name": "tokenURI",
          "type": "string"
        }
      ],
      "name": "DepositNft",
      "type": "event"
    },
    {
      "anonymous": false,
      "inputs": [
        {
          "indexed": true,
          "internalType": "address",
          "name": "previousOwner",
          "type": "address"
        },
        {
          "indexed": true,
          "internalType": "address",
          "name": "newOwner",
          "type": "address"
        }
      ],
      "name": "OwnershipTransferred",
      "type": "event"
    },
    {
      "anonymous": false,
      "inputs": [
        {
          "indexed": false,
          "internalType": "address",
          "name": "account",
          "type": "address"
        }
      ],
      "name": "Paused",
      "type": "event"
    },
    {
      "anonymous": false,
      "inputs": [
        {
          "indexed": true,
          "internalType": "address",
          "name": "operator",
          "type": "address"
        },
        {
          "indexed": true,
          "internalType": "address",
          "name": "from",
          "type": "address"
        },
        {
          "indexed": true,
          "internalType": "address",
          "name": "to",
          "type": "address"
        },
        {
          "indexed": false,
          "internalType": "uint256[]",
          "name": "ids",
          "type": "uint256[]"
        },
        {
          "indexed": false,
          "internalType": "uint256[]",
          "name": "values",
          "type": "uint256[]"
        }
      ],
      "name": "TransferBatch",
      "type": "event"
    },
    {
      "anonymous": false,
      "inputs": [
        {
          "indexed": true,
          "internalType": "address",
          "name": "operator",
          "type": "address"
        },
        {
          "indexed": true,
          "internalType": "address",
          "name": "from",
          "type": "address"
        },
        {
          "indexed": true,
          "internalType": "address",
          "name": "to",
          "type": "address"
        },
        {
          "indexed": false,
          "internalType": "uint256",
          "name": "id",
          "type": "uint256"
        },
        {
          "indexed": false,
          "internalType": "uint256",
          "name": "value",
          "type": "uint256"
        }
      ],
      "name": "TransferSingle",
      "type": "event"
    },
    {
      "anonymous": false,
      "inputs": [
        {
          "indexed": false,
          "internalType": "string",
          "name": "value",
          "type": "string"
        },
        {
          "indexed": true,
          "internalType": "uint256",
          "name": "id",
          "type": "uint256"
        }
      ],
      "name": "URI",
      "type": "event"
    },
    {
      "anonymous": false,
      "inputs": [
        {
          "indexed": false,
          "internalType": "address",
          "name": "account",
          "type": "address"
        }
      ],
      "name": "Unpaused",
      "type": "event"
    },
    {
      "anonymous": false,
      "inputs": [
        {
          "indexed": false,
          "internalType": "uint256",
          "name": "erc1155TokenId",
          "type": "uint256"
        },
        {
          "indexed": false,
          "internalType": "address",
          "name": "erc721ContractAddress",
          "type": "address"
        },
        {
          "indexed": false,
          "internalType": "uint256",
          "name": "erc721TokenId",
          "type": "uint256"
        }
      ],
      "name": "WithdrawNft",
      "type": "event"
    },
    {
      "inputs": [
        {
          "internalType": "address",
          "name": "account",
          "type": "address"
        },
        {
          "internalType": "uint256",
          "name": "id",
          "type": "uint256"
        }
      ],
      "name": "balanceOf",
      "outputs": [
        {
          "internalType": "uint256",
          "name": "",
          "type": "uint256"
        }
      ],
      "stateMutability": "view",
      "type": "function"
    },
    {
      "inputs": [
        {
          "internalType": "address[]",
          "name": "accounts",
          "type": "address[]"
        },
        {
          "internalType": "uint256[]",
          "name": "ids",
          "type": "uint256[]"
        }
      ],
      "name": "balanceOfBatch",
      "outputs": [
        {
          "internalType": "uint256[]",
          "name": "",
          "type": "uint256[]"
        }
      ],
      "stateMutability": "view",
      "type": "function"
    },
    {
      "inputs": [
        {
          "internalType": "uint256",
          "name": "tokenId",
          "type": "uint256"
        },
        {
          "internalType": "uint256",
          "name": "amount",
          "type": "uint256"
        },
        {
          "internalType": "address",
          "name": "transferer",
          "type": "address"
        }
      ],
      "name": "burn",
      "outputs": [],
      "stateMutability": "nonpayable",
      "type": "function"
    },
    {
      "inputs": [
        {
          "internalType": "address",
          "name": "erc721ContractAddress",
          "type": "address"
        },
        {
          "internalType": "uint256",
          "name": "erc721TokenId",
          "type": "uint256"
        },
        {
          "internalType": "uint256",
          "name": "fractionsAmountToMint",
          "type": "uint256"
        }
      ],
      "name": "depositNft",
      "outputs": [],
      "stateMutability": "nonpayable",
      "type": "function"
    },
    {
      "inputs": [
        {
          "internalType": "uint256",
          "name": "_tokenId",
          "type": "uint256"
        }
      ],
      "name": "getErc721ContractAddress",
      "outputs": [
        {
          "internalType": "address",
          "name": "",
          "type": "address"
        }
      ],
      "stateMutability": "view",
      "type": "function"
    },
    {
      "inputs": [
        {
          "internalType": "uint256",
          "name": "_tokenId",
          "type": "uint256"
        }
      ],
      "name": "getTokenData",
      "outputs": [
        {
          "internalType": "address",
          "name": "erc721ContractAddress",
          "type": "address"
        },
        {
          "internalType": "uint256",
          "name": "erc721TokenId",
          "type": "uint256"
        },
        {
          "internalType": "uint256",
          "name": "totalFractionsAmount",
          "type": "uint256"
        },
        {
          "internalType": "string",
          "name": "tokenURI",
          "type": "string"
        }
      ],
      "stateMutability": "view",
      "type": "function"
    },
    {
      "inputs": [
        {
          "internalType": "uint256",
          "name": "_tokenId",
          "type": "uint256"
        }
      ],
      "name": "getTotalFractionsAmount",
      "outputs": [
        {
          "internalType": "uint256",
          "name": "",
          "type": "uint256"
        }
      ],
      "stateMutability": "view",
      "type": "function"
    },
    {
      "inputs": [
        {
          "internalType": "string",
          "name": "uri_",
          "type": "string"
        }
      ],
      "name": "initialize",
      "outputs": [],
      "stateMutability": "nonpayable",
      "type": "function"
    },
    {
      "inputs": [
        {
          "internalType": "address",
          "name": "account",
          "type": "address"
        },
        {
          "internalType": "address",
          "name": "operator",
          "type": "address"
        }
      ],
      "name": "isApprovedForAll",
      "outputs": [
        {
          "internalType": "bool",
          "name": "",
          "type": "bool"
        }
      ],
      "stateMutability": "view",
      "type": "function"
    },
    {
      "inputs": [
        {
          "internalType": "address",
          "name": "erc721ContractAddress",
          "type": "address"
        },
        {
          "internalType": "uint256",
          "name": "erc721TokenId",
          "type": "uint256"
        },
        {
          "internalType": "uint256",
          "name": "erc1155TokenId",
          "type": "uint256"
        },
        {
          "internalType": "uint256",
          "name": "erc1155Amount",
          "type": "uint256"
        },
        {
          "internalType": "uint256",
          "name": "totalFractionsAmount",
          "type": "uint256"
        },
        {
          "internalType": "address",
          "name": "transferer",
          "type": "address"
        },
        {
          "internalType": "string",
          "name": "tokenURI",
          "type": "string"
        }
      ],
      "name": "mint",
      "outputs": [],
      "stateMutability": "nonpayable",
      "type": "function"
    },
    {
      "inputs": [],
      "name": "owner",
      "outputs": [
        {
          "internalType": "address",
          "name": "",
          "type": "address"
        }
      ],
      "stateMutability": "view",
      "type": "function"
    },
    {
      "inputs": [],
      "name": "pause",
      "outputs": [],
      "stateMutability": "nonpayable",
      "type": "function"
    },
    {
      "inputs": [],
      "name": "paused",
      "outputs": [
        {
          "internalType": "bool",
          "name": "",
          "type": "bool"
        }
      ],
      "stateMutability": "view",
      "type": "function"
    },
    {
      "inputs": [],
      "name": "renounceOwnership",
      "outputs": [],
      "stateMutability": "nonpayable",
      "type": "function"
    },
    {
      "inputs": [
        {
          "internalType": "address",
          "name": "from",
          "type": "address"
        },
        {
          "internalType": "address",
          "name": "to",
          "type": "address"
        },
        {
          "internalType": "uint256[]",
          "name": "ids",
          "type": "uint256[]"
        },
        {
          "internalType": "uint256[]",
          "name": "amounts",
          "type": "uint256[]"
        },
        {
          "internalType": "bytes",
          "name": "data",
          "type": "bytes"
        }
      ],
      "name": "safeBatchTransferFrom",
      "outputs": [],
      "stateMutability": "nonpayable",
      "type": "function"
    },
    {
      "inputs": [
        {
          "internalType": "address",
          "name": "from",
          "type": "address"
        },
        {
          "internalType": "address",
          "name": "to",
          "type": "address"
        },
        {
          "internalType": "uint256",
          "name": "id",
          "type": "uint256"
        },
        {
          "internalType": "uint256",
          "name": "amount",
          "type": "uint256"
        },
        {
          "internalType": "bytes",
          "name": "data",
          "type": "bytes"
        }
      ],
      "name": "safeTransferFrom",
      "outputs": [],
      "stateMutability": "nonpayable",
      "type": "function"
    },
    {
      "inputs": [
        {
          "internalType": "address",
          "name": "operator",
          "type": "address"
        },
        {
          "internalType": "bool",
          "name": "approved",
          "type": "bool"
        }
      ],
      "name": "setApprovalForAll",
      "outputs": [],
      "stateMutability": "nonpayable",
      "type": "function"
    },
    {
      "inputs": [
        {
          "internalType": "bytes4",
          "name": "interfaceId",
          "type": "bytes4"
        }
      ],
      "name": "supportsInterface",
      "outputs": [
        {
          "internalType": "bool",
          "name": "",
          "type": "bool"
        }
      ],
      "stateMutability": "view",
      "type": "function"
    },
    {
      "inputs": [
        {
          "internalType": "address",
          "name": "from",
          "type": "address"
        },
        {
          "internalType": "address",
          "name": "to",
          "type": "address"
        },
        {
          "internalType": "uint256",
          "name": "id",
          "type": "uint256"
        },
        {
          "internalType": "uint256",
          "name": "amount",
          "type": "uint256"
        },
        {
          "internalType": "bytes",
          "name": "data",
          "type": "bytes"
        }
      ],
      "name": "transferFrom",
      "outputs": [],
      "stateMutability": "nonpayable",
      "type": "function"
    },
    {
      "inputs": [
        {
          "internalType": "address",
          "name": "newOwner",
          "type": "address"
        }
      ],
      "name": "transferOwnership",
      "outputs": [],
      "stateMutability": "nonpayable",
      "type": "function"
    },
    {
      "inputs": [
        {
          "internalType": "uint256",
          "name": "",
          "type": "uint256"
        }
      ],
      "name": "uri",
      "outputs": [
        {
          "internalType": "string",
          "name": "",
          "type": "string"
        }
      ],
      "stateMutability": "view",
      "type": "function"
    },
    {
      "inputs": [
        {
          "internalType": "uint256",
          "name": "tokenId",
          "type": "uint256"
        }
      ],
      "name": "withdrawNft",
      "outputs": [],
      "stateMutability": "nonpayable",
      "type": "function"
    }
  ],
  "bytecode": "0x608060405234801561001057600080fd5b50612835806100206000396000f3fe608060405234801561001057600080fd5b50600436106101415760003560e01c80638456cb59116100b8578063b09afec11161007c578063b09afec1146102d3578063e09a3cb4146102f6578063e985e9c514610309578063f242432a14610345578063f2fde38b14610358578063f62d18881461036b57600080fd5b80638456cb59146102815780638da5cb5b14610289578063910efae81461029a578063971a5847146102ad578063a22cb465146102c057600080fd5b80634e1273f41161010a5780634e1273f4146101e75780635c975abb14610207578063605105f01461021257806366d0330c14610225578063715018a614610266578063749388c41461026e57600080fd5b8062fdd58e1461014657806301ffc9a71461016c5780630e89341c1461018f5780632eb2c2d6146101af57806333d59207146101c4575b600080fd5b610159610154366004611f66565b61037e565b6040519081526020015b60405180910390f35b61017f61017a366004612119565b610417565b6040519015158152602001610163565b6101a261019d36600461220a565b610469565b60405161016391906123d1565b6101c26101bd366004611e24565b6104fd565b005b6101596101d236600461220a565b600090815260fb602052604090206002015490565b6101fa6101f536600461204c565b610594565b6040516101639190612390565b60975460ff1661017f565b6101c2610220366004611ece565b6106f6565b61024e61023336600461220a565b600090815260fb60205260409020546001600160a01b031690565b6040516001600160a01b039091168152602001610163565b6101c261074b565b6101c261027c366004612222565b610781565b6101c261083d565b60c9546001600160a01b031661024e565b6101c26102a836600461220a565b61086f565b6101c26102bb366004611fc5565b610a11565b6101c26102ce366004611f35565b610b4b565b6102e66102e136600461220a565b610b5a565b6040516101639493929190612363565b6101c2610304366004611f91565b610c2a565b61017f610317366004611dec565b6001600160a01b03918216600090815260666020908152604080832093909416825291909152205460ff1690565b6101c2610353366004611ece565b610f28565b6101c2610366366004611dad565b610faf565b6101c2610379366004612151565b61104a565b60006001600160a01b0383166103ef5760405162461bcd60e51b815260206004820152602b60248201527f455243313135353a2062616c616e636520717565727920666f7220746865207a60448201526a65726f206164647265737360a81b60648201526084015b60405180910390fd5b5060009081526065602090815260408083206001600160a01b03949094168352929052205490565b60006001600160e01b03198216636cdb3d1360e11b148061044857506001600160e01b031982166303a24d0760e21b145b8061046357506301ffc9a760e01b6001600160e01b03198316145b92915050565b60606067805461047890612683565b80601f01602080910402602001604051908101604052809291908181526020018280546104a490612683565b80156104f15780601f106104c6576101008083540402835291602001916104f1565b820191906000526020600020905b8154815290600101906020018083116104d457829003601f168201915b50505050509050919050565b6001600160a01b03851633148061051957506105198533610317565b6105805760405162461bcd60e51b815260206004820152603260248201527f455243313135353a207472616e736665722063616c6c6572206973206e6f74206044820152711bdddb995c881b9bdc88185c1c1c9bdd995960721b60648201526084016103e6565b61058d85858585856110c5565b5050505050565b606081518351146105f95760405162461bcd60e51b815260206004820152602960248201527f455243313135353a206163636f756e747320616e6420696473206c656e677468604482015268040dad2e6dac2e8c6d60bb1b60648201526084016103e6565b6000835167ffffffffffffffff81111561062357634e487b7160e01b600052604160045260246000fd5b60405190808252806020026020018201604052801561064c578160200160208202803683370190505b50905060005b84518110156106ee576106b385828151811061067e57634e487b7160e01b600052603260045260246000fd5b60200260200101518583815181106106a657634e487b7160e01b600052603260045260246000fd5b602002602001015161037e565b8282815181106106d357634e487b7160e01b600052603260045260246000fd5b60209081029190910101526106e7816126eb565b9050610652565b509392505050565b60975460ff16156107195760405162461bcd60e51b81526004016103e690612589565b6000610725868561037e565b90506000610733868661037e565b90506107428787878787610f28565b50505050505050565b60c9546001600160a01b031633146107755760405162461bcd60e51b81526004016103e690612509565b61077f60006112c1565b565b60c9546001600160a01b031633146107ab5760405162461bcd60e51b81526004016103e690612509565b60975460ff16156107ce5760405162461bcd60e51b81526004016103e690612589565b60006107da828561037e565b90508281101561082c5760405162461bcd60e51b815260206004820152601860248201527f68617320746f206f776e20657175616c206f72206d6f7265000000000000000060448201526064016103e6565b610837828585611313565b50505050565b60c9546001600160a01b031633146108675760405162461bcd60e51b81526004016103e690612509565b61077f611491565b60975460ff16156108925760405162461bcd60e51b81526004016103e690612589565b600081815260fb6020526040812060020154906108af338461037e565b90508082146108f85760405162461bcd60e51b81526020600482015260156024820152741cd95b99195c881a185cc81d1bc81bdddb88185b1b605a1b60448201526064016103e6565b600083815260fb602052604090819020805460019091015491516323b872dd60e01b8152306004820152336024820152604481018390526001600160a01b039091169190829081906323b872dd90606401600060405180830381600087803b15801561096357600080fd5b505af1158015610977573d6000803e3d6000fd5b50505050610986338787611313565b600086815260fb6020526040812080546001600160a01b03191681556001810182905560028101829055906109be6003830182611c0f565b5050604080518781526001600160a01b03851660208201529081018390527f93099f51c64ef1232856a1b30fa669561cf1d6a628ef780bb9ed4f6872c36fff9060600160405180910390a1505050505050565b60c9546001600160a01b03163314610a3b5760405162461bcd60e51b81526004016103e690612509565b60975460ff1615610a5e5760405162461bcd60e51b81526004016103e690612589565b610a7982868660405180602001604052806000815250611529565b600085815260fb60205260409020546001906001600160a01b0316610b4157610acc604051806080016040528060006001600160a01b031681526020016000815260200160008152602001606081525090565b6001600160a01b03898116825260208083018a815260408085018981526060860188815260008d815260fb865292909220865181546001600160a01b03191696169590951785559151600185015590516002840155518051849392610b38926003850192910190611c49565b50600093505050505b5050505050505050565b610b56338383611635565b5050565b600081815260fb6020526040812080546001820154600283015460039093018054859485946060946001600160a01b039091169390928190610b9b90612683565b80601f0160208091040260200160405190810160405280929190818152602001828054610bc790612683565b8015610c145780601f10610be957610100808354040283529160200191610c14565b820191906000526020600020905b815481529060010190602001808311610bf757829003601f168201915b5050505050905093509350935093509193509193565b60975460ff1615610c4d5760405162461bcd60e51b81526004016103e690612589565b6040516331a9108f60e11b815260048101839052839033906001600160a01b03831690636352211e9060240160206040518083038186803b158015610c9157600080fd5b505afa158015610ca5573d6000803e3d6000fd5b505050506040513d601f19601f82011682018060405250810190610cc99190611dd0565b6001600160a01b031614610d1f5760405162461bcd60e51b815260206004820152601f60248201527f6d73672073656e6465722068617320746f206f776e2074686520746f6b656e0060448201526064016103e6565b6040516323b872dd60e01b8152336004820152306024820152604481018490526001600160a01b038216906323b872dd90606401600060405180830381600087803b158015610d6d57600080fd5b505af1158015610d81573d6000803e3d6000fd5b50505050610d9360fc80546001019055565b6000610d9e60fc5490565b9050610dbb33828560405180602001604052806000815250611529565b60405163c87b56dd60e01b8152600481018590526060906001600160a01b0384169063c87b56dd9060240160006040518083038186803b158015610dfe57600080fd5b505afa158015610e12573d6000803e3d6000fd5b505050506040513d6000823e601f3d908101601f19168201604052610e3a919081019061218c565b9050610e70604051806080016040528060006001600160a01b031681526020016000815260200160008152602001606081525090565b6001600160a01b0387811682526020808301888152604080850189815260608601878152600089815260fb865292909220865181546001600160a01b03191696169590951785559151600185015590516002840155518051849392610edc926003850192910190611c49565b509050507fc418f7a91f366be09b65548b396e0f63940f86274faace87fe5e604acd5f43c98388888886604051610f179594939291906125c0565b60405180910390a150505050505050565b6001600160a01b038516331480610f445750610f448533610317565b610fa25760405162461bcd60e51b815260206004820152602960248201527f455243313135353a2063616c6c6572206973206e6f74206f776e6572206e6f7260448201526808185c1c1c9bdd995960ba1b60648201526084016103e6565b61058d8585858585611716565b60c9546001600160a01b03163314610fd95760405162461bcd60e51b81526004016103e690612509565b6001600160a01b03811661103e5760405162461bcd60e51b815260206004820152602660248201527f4f776e61626c653a206e6577206f776e657220697320746865207a65726f206160448201526564647265737360d01b60648201526084016103e6565b611047816112c1565b50565b600054610100900460ff166110655760005460ff1615611069565b303b155b6110855760405162461bcd60e51b81526004016103e690612471565b600054610100900460ff161580156110a7576000805461ffff19166101011790555b6110b08261182e565b8015610b56576000805461ff00191690555050565b81518351146111275760405162461bcd60e51b815260206004820152602860248201527f455243313135353a2069647320616e6420616d6f756e7473206c656e677468206044820152670dad2e6dac2e8c6d60c31b60648201526084016103e6565b6001600160a01b03841661114d5760405162461bcd60e51b81526004016103e69061242c565b3360005b845181101561125357600085828151811061117c57634e487b7160e01b600052603260045260246000fd5b6020026020010151905060008583815181106111a857634e487b7160e01b600052603260045260246000fd5b60209081029190910181015160008481526065835260408082206001600160a01b038e1683529093529190912054909150818110156111f95760405162461bcd60e51b81526004016103e6906124bf565b60008381526065602090815260408083206001600160a01b038e8116855292528083208585039055908b1682528120805484929061123890849061263f565b925050819055505050508061124c906126eb565b9050611151565b50846001600160a01b0316866001600160a01b0316826001600160a01b03167f4a39dc06d4c0dbc64b70af90fd698a233a518aa5d07e595d983b8c0526c8f7fb87876040516112a39291906123a3565b60405180910390a46112b98187878787876118b4565b505050505050565b60c980546001600160a01b038381166001600160a01b0319831681179093556040519116919082907f8be0079c531659141344cd1fd0a4f28419497f9722a3daafe3b4186f6b6457e090600090a35050565b6001600160a01b0383166113755760405162461bcd60e51b815260206004820152602360248201527f455243313135353a206275726e2066726f6d20746865207a65726f206164647260448201526265737360e81b60648201526084016103e6565b336113a58185600061138687611a1f565b61138f87611a1f565b5050604080516020810190915260009052505050565b60008381526065602090815260408083206001600160a01b0388168452909152902054828110156114245760405162461bcd60e51b8152602060048201526024808201527f455243313135353a206275726e20616d6f756e7420657863656564732062616c604482015263616e636560e01b60648201526084016103e6565b60008481526065602090815260408083206001600160a01b03898116808652918452828520888703905582518981529384018890529092908616917fc3d58168c5ae7397731d063d5bbf3d657854427343f4c083240f7aacaa2d0f62910160405180910390a45050505050565b60975460ff16156114d75760405162461bcd60e51b815260206004820152601060248201526f14185d5cd8589b194e881c185d5cd95960821b60448201526064016103e6565b6097805460ff191660011790557f62e78cea01bee320cd4e420270b5ea74000d11b0c9f74754ebdbfc544b05a25861150c3390565b6040516001600160a01b03909116815260200160405180910390a1565b6001600160a01b0384166115895760405162461bcd60e51b815260206004820152602160248201527f455243313135353a206d696e7420746f20746865207a65726f206164647265736044820152607360f81b60648201526084016103e6565b336115a38160008761159a88611a1f565b61058d88611a1f565b60008481526065602090815260408083206001600160a01b0389168452909152812080548592906115d590849061263f565b909155505060408051858152602081018590526001600160a01b0380881692600092918516917fc3d58168c5ae7397731d063d5bbf3d657854427343f4c083240f7aacaa2d0f62910160405180910390a461058d81600087878787611a78565b816001600160a01b0316836001600160a01b031614156116a95760405162461bcd60e51b815260206004820152602960248201527f455243313135353a2073657474696e6720617070726f76616c20737461747573604482015268103337b91039b2b63360b91b60648201526084016103e6565b6001600160a01b03838116600081815260666020908152604080832094871680845294825291829020805460ff191686151590811790915591519182527f17307eab39ab6107e8899845ad3d59bd9653f200f220920489ca2b5937696c31910160405180910390a3505050565b6001600160a01b03841661173c5760405162461bcd60e51b81526004016103e69061242c565b3361174c81878761159a88611a1f565b60008481526065602090815260408083206001600160a01b038a1684529091529020548381101561178f5760405162461bcd60e51b81526004016103e6906124bf565b60008581526065602090815260408083206001600160a01b038b81168552925280832087850390559088168252812080548692906117ce90849061263f565b909155505060408051868152602081018690526001600160a01b03808916928a821692918616917fc3d58168c5ae7397731d063d5bbf3d657854427343f4c083240f7aacaa2d0f62910160405180910390a4610742828888888888611a78565b600054610100900460ff166118495760005460ff161561184d565b303b155b6118695760405162461bcd60e51b81526004016103e690612471565b600054610100900460ff1615801561188b576000805461ffff19166101011790555b611893611b42565b61189b611b42565b6118a3611b69565b6118ac82611b9c565b6110b0611bcc565b6001600160a01b0384163b156112b95760405163bc197c8160e01b81526001600160a01b0385169063bc197c81906118f890899089908890889088906004016122c0565b602060405180830381600087803b15801561191257600080fd5b505af1925050508015611942575060408051601f3d908101601f1916820190925261193f91810190612135565b60015b6119ef5761194e612732565b806308c379a01415611988575061196361274a565b8061196e575061198a565b8060405162461bcd60e51b81526004016103e691906123d1565b505b60405162461bcd60e51b815260206004820152603460248201527f455243313135353a207472616e7366657220746f206e6f6e20455243313135356044820152732932b1b2b4bb32b91034b6b83632b6b2b73a32b960611b60648201526084016103e6565b6001600160e01b0319811663bc197c8160e01b146107425760405162461bcd60e51b81526004016103e6906123e4565b60408051600180825281830190925260609160009190602080830190803683370190505090508281600081518110611a6757634e487b7160e01b600052603260045260246000fd5b602090810291909101015292915050565b6001600160a01b0384163b156112b95760405163f23a6e6160e01b81526001600160a01b0385169063f23a6e6190611abc908990899088908890889060040161231e565b602060405180830381600087803b158015611ad657600080fd5b505af1925050508015611b06575060408051601f3d908101601f19168201909252611b0391810190612135565b60015b611b125761194e612732565b6001600160e01b0319811663f23a6e6160e01b146107425760405162461bcd60e51b81526004016103e6906123e4565b600054610100900460ff1661077f5760405162461bcd60e51b81526004016103e69061253e565b600054610100900460ff16611b905760405162461bcd60e51b81526004016103e69061253e565b6097805460ff19169055565b600054610100900460ff16611bc35760405162461bcd60e51b81526004016103e69061253e565b61104781611bfc565b600054610100900460ff16611bf35760405162461bcd60e51b81526004016103e69061253e565b61077f336112c1565b8051610b56906067906020840190611c49565b508054611c1b90612683565b6000825580601f10611c2b575050565b601f0160209004906000526020600020908101906110479190611ccd565b828054611c5590612683565b90600052602060002090601f016020900481019282611c775760008555611cbd565b82601f10611c9057805160ff1916838001178555611cbd565b82800160010185558215611cbd579182015b82811115611cbd578251825591602001919060010190611ca2565b50611cc9929150611ccd565b5090565b5b80821115611cc95760008155600101611cce565b600082601f830112611cf2578081fd5b81356020611cff826125f3565b604051611d0c82826126be565b8381528281019150858301600585901b87018401881015611d2b578586fd5b855b85811015611d4957813584529284019290840190600101611d2d565b5090979650505050505050565b600082601f830112611d66578081fd5b8135611d7181612617565b604051611d7e82826126be565b828152856020848701011115611d92578384fd5b82602086016020830137918201602001929092529392505050565b600060208284031215611dbe578081fd5b8135611dc9816127d4565b9392505050565b600060208284031215611de1578081fd5b8151611dc9816127d4565b60008060408385031215611dfe578081fd5b8235611e09816127d4565b91506020830135611e19816127d4565b809150509250929050565b600080600080600060a08688031215611e3b578081fd5b8535611e46816127d4565b94506020860135611e56816127d4565b9350604086013567ffffffffffffffff80821115611e72578283fd5b611e7e89838a01611ce2565b94506060880135915080821115611e93578283fd5b611e9f89838a01611ce2565b93506080880135915080821115611eb4578283fd5b50611ec188828901611d56565b9150509295509295909350565b600080600080600060a08688031215611ee5578081fd5b8535611ef0816127d4565b94506020860135611f00816127d4565b93506040860135925060608601359150608086013567ffffffffffffffff811115611f29578182fd5b611ec188828901611d56565b60008060408385031215611f47578182fd5b8235611f52816127d4565b915060208301358015158114611e19578182fd5b60008060408385031215611f78578182fd5b8235611f83816127d4565b946020939093013593505050565b600080600060608486031215611fa5578081fd5b8335611fb0816127d4565b95602085013595506040909401359392505050565b600080600080600080600060e0888a031215611fdf578485fd5b8735611fea816127d4565b96506020880135955060408801359450606088013593506080880135925060a0880135612016816127d4565b915060c088013567ffffffffffffffff811115612031578182fd5b61203d8a828b01611d56565b91505092959891949750929550565b6000806040838503121561205e578182fd5b823567ffffffffffffffff80821115612075578384fd5b818501915085601f830112612088578384fd5b81356020612095826125f3565b6040516120a282826126be565b8381528281019150858301600585901b870184018b10156120c1578889fd5b8896505b848710156120ec5780356120d8816127d4565b8352600196909601959183019183016120c5565b5096505086013592505080821115612102578283fd5b5061210f85828601611ce2565b9150509250929050565b60006020828403121561212a578081fd5b8135611dc9816127e9565b600060208284031215612146578081fd5b8151611dc9816127e9565b600060208284031215612162578081fd5b813567ffffffffffffffff811115612178578182fd5b61218484828501611d56565b949350505050565b60006020828403121561219d578081fd5b815167ffffffffffffffff8111156121b3578182fd5b8201601f810184136121c3578182fd5b80516121ce81612617565b6040516121db82826126be565b8281528660208486010111156121ef578485fd5b612200836020830160208701612657565b9695505050505050565b60006020828403121561221b578081fd5b5035919050565b600080600060608486031215612236578081fd5b8335925060208401359150604084013561224f816127d4565b809150509250925092565b6000815180845260208085019450808401835b838110156122895781518752958201959082019060010161226d565b509495945050505050565b600081518084526122ac816020860160208601612657565b601f01601f19169290920160200192915050565b6001600160a01b0386811682528516602082015260a0604082018190526000906122ec9083018661225a565b82810360608401526122fe818661225a565b905082810360808401526123128185612294565b98975050505050505050565b6001600160a01b03868116825285166020820152604081018490526060810183905260a06080820181905260009061235890830184612294565b979650505050505050565b60018060a01b03851681528360208201528260408201526080606082015260006122006080830184612294565b602081526000611dc9602083018461225a565b6040815260006123b6604083018561225a565b82810360208401526123c8818561225a565b95945050505050565b602081526000611dc96020830184612294565b60208082526028908201527f455243313135353a204552433131353552656365697665722072656a656374656040820152676420746f6b656e7360c01b606082015260800190565b60208082526025908201527f455243313135353a207472616e7366657220746f20746865207a65726f206164604082015264647265737360d81b606082015260800190565b6020808252602e908201527f496e697469616c697a61626c653a20636f6e747261637420697320616c72656160408201526d191e481a5b9a5d1a585b1a5e995960921b606082015260800190565b6020808252602a908201527f455243313135353a20696e73756666696369656e742062616c616e636520666f60408201526939103a3930b739b332b960b11b606082015260800190565b6020808252818101527f4f776e61626c653a2063616c6c6572206973206e6f7420746865206f776e6572604082015260600190565b6020808252602b908201527f496e697469616c697a61626c653a20636f6e7472616374206973206e6f74206960408201526a6e697469616c697a696e6760a81b606082015260800190565b60208082526018908201527f4e6f7420616c6c6f776564207768696c65207061757365640000000000000000604082015260600190565b85815260018060a01b038516602082015283604082015282606082015260a06080820152600061235860a0830184612294565b600067ffffffffffffffff82111561260d5761260d61271c565b5060051b60200190565b600067ffffffffffffffff8211156126315761263161271c565b50601f01601f191660200190565b6000821982111561265257612652612706565b500190565b60005b8381101561267257818101518382015260200161265a565b838111156108375750506000910152565b600181811c9082168061269757607f821691505b602082108114156126b857634e487b7160e01b600052602260045260246000fd5b50919050565b601f8201601f1916810167ffffffffffffffff811182821017156126e4576126e461271c565b6040525050565b60006000198214156126ff576126ff612706565b5060010190565b634e487b7160e01b600052601160045260246000fd5b634e487b7160e01b600052604160045260246000fd5b600060033d111561274757600481823e5160e01c5b90565b600060443d10156127585790565b6040516003193d81016004833e81513d67ffffffffffffffff816024840111818411171561278857505050505090565b82850191508151818111156127a05750505050505090565b843d87010160208285010111156127ba5750505050505090565b6127c9602082860101876126be565b509095945050505050565b6001600160a01b038116811461104757600080fd5b6001600160e01b03198116811461104757600080fdfea264697066735822122008775e043e6848c470d6a2504c7b511ecc3245d57abe7158269d64812cb7642b64736f6c63430008040033",
  "linkReferences": {},
  "deployedLinkReferences": {}
}