{
  "_format": "hh-sol-artifact-1",
  "contractName": "WatchDexBase",
  "sourceName": "contracts/WatchDexBase.sol",
  "abi": [
    {
      "anonymous": false,
      "inputs": [
        {
          "indexed": true,
          "internalType": "address",
          "name": "previousOwner",
          "type": "address"
        },
        {
          "indexed": true,
          "internalType": "address",
          "name": "newOwner",
          "type": "address"
        }
      ],
      "name": "OwnershipTransferred",
      "type": "event"
    },
    {
      "anonymous": false,
      "inputs": [
        {
          "indexed": false,
          "internalType": "address",
          "name": "account",
          "type": "address"
        }
      ],
      "name": "Paused",
      "type": "event"
    },
    {
      "anonymous": false,
      "inputs": [
        {
          "indexed": false,
          "internalType": "address",
          "name": "account",
          "type": "address"
        }
      ],
      "name": "Unpaused",
      "type": "event"
    },
    {
      "inputs": [
        {
          "internalType": "uint256",
          "name": "tokenId",
          "type": "uint256"
        },
        {
          "internalType": "uint256",
          "name": "amount",
          "type": "uint256"
        },
        {
          "internalType": "enum WatchDexBase.Side",
          "name": "side",
          "type": "uint8"
        }
      ],
      "name": "createMarketOrder",
      "outputs": [],
      "stateMutability": "payable",
      "type": "function"
    },
    {
      "inputs": [],
      "name": "iNftFractionsRepository",
      "outputs": [
        {
          "internalType": "contract INftFractionsRepository",
          "name": "",
          "type": "address"
        }
      ],
      "stateMutability": "view",
      "type": "function"
    },
    {
      "inputs": [],
      "name": "initialize",
      "outputs": [],
      "stateMutability": "nonpayable",
      "type": "function"
    },
    {
      "inputs": [
        {
          "internalType": "uint256",
          "name": "",
          "type": "uint256"
        },
        {
          "internalType": "uint256",
          "name": "",
          "type": "uint256"
        },
        {
          "internalType": "uint256",
          "name": "",
          "type": "uint256"
        }
      ],
      "name": "orderBook",
      "outputs": [
        {
          "internalType": "uint256",
          "name": "id",
          "type": "uint256"
        },
        {
          "internalType": "address",
          "name": "trader",
          "type": "address"
        },
        {
          "internalType": "enum WatchDexBase.Side",
          "name": "side",
          "type": "uint8"
        },
        {
          "internalType": "uint256",
          "name": "tokenId",
          "type": "uint256"
        },
        {
          "internalType": "uint256",
          "name": "amount",
          "type": "uint256"
        },
        {
          "internalType": "uint256",
          "name": "filled",
          "type": "uint256"
        },
        {
          "internalType": "uint256",
          "name": "price",
          "type": "uint256"
        },
        {
          "internalType": "uint256",
          "name": "date",
          "type": "uint256"
        }
      ],
      "stateMutability": "view",
      "type": "function"
    },
    {
      "inputs": [],
      "name": "owner",
      "outputs": [
        {
          "internalType": "address",
          "name": "",
          "type": "address"
        }
      ],
      "stateMutability": "view",
      "type": "function"
    },
    {
      "inputs": [],
      "name": "pause",
      "outputs": [],
      "stateMutability": "nonpayable",
      "type": "function"
    },
    {
      "inputs": [],
      "name": "paused",
      "outputs": [
        {
          "internalType": "bool",
          "name": "",
          "type": "bool"
        }
      ],
      "stateMutability": "view",
      "type": "function"
    },
    {
      "inputs": [],
      "name": "renounceOwnership",
      "outputs": [],
      "stateMutability": "nonpayable",
      "type": "function"
    },
    {
      "inputs": [
        {
          "internalType": "address",
          "name": "nftFractionsRepositoryAddress",
          "type": "address"
        }
      ],
      "name": "setNftFractionsRepository",
      "outputs": [],
      "stateMutability": "nonpayable",
      "type": "function"
    },
    {
      "inputs": [
        {
          "internalType": "address",
          "name": "",
          "type": "address"
        },
        {
          "internalType": "uint256",
          "name": "",
          "type": "uint256"
        }
      ],
      "name": "sharesReserved",
      "outputs": [
        {
          "internalType": "uint256",
          "name": "",
          "type": "uint256"
        }
      ],
      "stateMutability": "view",
      "type": "function"
    },
    {
      "inputs": [
        {
          "internalType": "address",
          "name": "newOwner",
          "type": "address"
        }
      ],
      "name": "transferOwnership",
      "outputs": [],
      "stateMutability": "nonpayable",
      "type": "function"
    }
  ],
  "bytecode": "0x608060405234801561001057600080fd5b5061126e806100206000396000f3fe60806040526004361061009c5760003560e01c80638456cb59116100645780638456cb59146101405780638da5cb5b1461015557806394d49333146101735780639f381f6f146101b9578063f2fde38b146101ed578063fbe276741461020d57600080fd5b8063430f1ae7146100a157806354c0cde4146100de5780635c975abb146100f3578063715018a6146101165780638129fc1c1461012b575b600080fd5b3480156100ad57600080fd5b5060cd546100c1906001600160a01b031681565b6040516001600160a01b0390911681526020015b60405180910390f35b6100f16100ec36600461103f565b61022d565b005b3480156100ff57600080fd5b5060335460ff1660405190151581526020016100d5565b34801561012257600080fd5b506100f1610bb0565b34801561013757600080fd5b506100f1610be6565b34801561014c57600080fd5b506100f1610cb7565b34801561016157600080fd5b506065546001600160a01b03166100c1565b34801561017f57600080fd5b506101ab61018e366004610ffc565b60cc60209081526000928352604080842090915290825290205481565b6040519081526020016100d5565b3480156101c557600080fd5b506101d96101d436600461107a565b610ce9565b6040516100d598979695949392919061115d565b3480156101f957600080fd5b506100f1610208366004610fbd565b610d65565b34801561021957600080fd5b506100f1610228366004610fbd565b610dfd565b600260975414156102855760405162461bcd60e51b815260206004820152601f60248201527f5265656e7472616e637947756172643a207265656e7472616e742063616c6c0060448201526064015b60405180910390fd5b600260975560cd546040516319b40cc360e21b81526004810185905284916000916001600160a01b03909116906366d0330c90602401602060405180830381600087803b1580156102d557600080fd5b505af11580156102e9573d6000803e3d6000fd5b505050506040513d601f19601f8201168201806040525081019061030d9190610fe0565b90506001600160a01b0381166103655760405162461bcd60e51b815260206004820152601960248201527f7468697320746f6b656e20646f6573206e6f7420657869737400000000000000604482015260640161027c565b60335460ff16156103b85760405162461bcd60e51b815260206004820152601860248201527f4e6f7420616c6c6f776564207768696c65207061757365640000000000000000604482015260640161027c565b60018360018111156103da57634e487b7160e01b600052602160045260246000fd5b14156104b55760cd54604051627eeac760e11b8152336004820152602481018790526000916001600160a01b03169062fdd58e9060440160206040518083038186803b15801561042957600080fd5b505afa15801561043d573d6000803e3d6000fd5b505050506040513d601f19601f820116820180604052508101906104619190611027565b9050848110156104b35760405162461bcd60e51b815260206004820152601d60248201527f73656e646572277320746f6b656e2062616c616e6365206973206c6f77000000604482015260640161027c565b505b600085815260cb6020526040812081808660018111156104e557634e487b7160e01b600052602160045260246000fd5b146104f15760006104f4565b60015b600181111561051357634e487b7160e01b600052602160045260246000fd5b815260200190815260200160002090506000808690505b82548210801561053a5750600081115b1561097257600083838154811061056157634e487b7160e01b600052603260045260246000fd5b90600052602060002090600702016004015484848154811061059357634e487b7160e01b600052603260045260246000fd5b9060005260206000209060070201600301546105af91906111db565b905060008183116105c057826105c2565b815b90506105ce81846111db565b9250808585815481106105f157634e487b7160e01b600052603260045260246000fd5b90600052602060002090600702016004015461060d91906111c3565b85858154811061062d57634e487b7160e01b600052603260045260246000fd5b90600052602060002090600702016004018190555061065060ca80546001019055565b600188600181111561067257634e487b7160e01b600052602160045260246000fd5b14156107275760cd5485546001600160a01b039091169063605105f09033908890889081106106b157634e487b7160e01b600052603260045260246000fd5b60009182526020909120600160079092020101546040516001600160e01b031960e085901b1681526106f492916001600160a01b0316908f9087906004016110a5565b600060405180830381600087803b15801561070e57600080fd5b505af1158015610722573d6000803e3d6000fd5b505050505b600088600181111561074957634e487b7160e01b600052602160045260246000fd5b141561095e5760008086868154811061077257634e487b7160e01b600052603260045260246000fd5b600091825260208220600790910201600101546040516001600160a01b039091169134919081818185875af1925050503d80600081146107ce576040519150601f19603f3d011682016040523d82523d6000602084013e6107d3565b606091505b50915091508161081c5760405162461bcd60e51b81526020600482015260146024820152732330b4b632b2103a379039b2b7321022ba3432b960611b604482015260640161027c565b60cd5487546001600160a01b039091169063605105f09089908990811061085357634e487b7160e01b600052603260045260246000fd5b906000526020600020906007020160010160009054906101000a90046001600160a01b0316338f876040518563ffffffff1660e01b815260040161089a94939291906110a5565b600060405180830381600087803b1580156108b457600080fd5b505af11580156108c8573d6000803e3d6000fd5b505050508260cc60008989815481106108f157634e487b7160e01b600052603260045260246000fd5b906000526020600020906007020160010160009054906101000a90046001600160a01b03166001600160a01b03166001600160a01b0316815260200190815260200160002060008e8152602001908152602001600020600082825461095691906111db565b909155505050505b83610968816111f2565b945050505061052a565b600091505b8254821080156109e857508282815481106109a257634e487b7160e01b600052603260045260246000fd5b9060005260206000209060070201600301548383815481106109d457634e487b7160e01b600052603260045260246000fd5b906000526020600020906007020160040154145b15610ba157815b83546109fd906001906111db565b811015610b245783610a108260016111c3565b81548110610a2e57634e487b7160e01b600052603260045260246000fd5b9060005260206000209060070201848281548110610a5c57634e487b7160e01b600052603260045260246000fd5b6000918252602090912082546007909202019081556001808301805482840180546001600160a01b031981166001600160a01b039093169283178255925460ff600160a01b91829004169491936001600160a81b03191690921791908490811115610ad757634e487b7160e01b600052602160045260246000fd5b021790555060028201548160020155600382015481600301556004820154816004015560058201548160050155600682015481600601559050508080610b1c906111f2565b9150506109ef565b5082805480610b4357634e487b7160e01b600052603160045260246000fd5b6000828152602081206007600019909301928302018181556001810180546001600160a81b03191690556002810182905560038101829055600481018290556005810182905560060155905581610b99816111f2565b925050610977565b50506001609755505050505050565b6065546001600160a01b03163314610bda5760405162461bcd60e51b815260040161027c906110dd565b610be46000610e49565b565b600054610100900460ff16610c015760005460ff1615610c05565b303b155b610c685760405162461bcd60e51b815260206004820152602e60248201527f496e697469616c697a61626c653a20636f6e747261637420697320616c72656160448201526d191e481a5b9a5d1a585b1a5e995960921b606482015260840161027c565b600054610100900460ff16158015610c8a576000805461ffff19166101011790555b610c92610e9b565b610c9a610ec2565b610ca2610ef5565b8015610cb4576000805461ff00191690555b50565b6065546001600160a01b03163314610ce15760405162461bcd60e51b815260040161027c906110dd565b610be4610f25565b60cb6020528260005260406000206020528160005260406000208181548110610d1157600080fd5b600091825260209091206007909102018054600182015460028301546003840154600485015460058601546006909601549498506001600160a01b0384169750600160a01b90930460ff1695509093909288565b6065546001600160a01b03163314610d8f5760405162461bcd60e51b815260040161027c906110dd565b6001600160a01b038116610df45760405162461bcd60e51b815260206004820152602660248201527f4f776e61626c653a206e6577206f776e657220697320746865207a65726f206160448201526564647265737360d01b606482015260840161027c565b610cb481610e49565b6065546001600160a01b03163314610e275760405162461bcd60e51b815260040161027c906110dd565b60cd80546001600160a01b0319166001600160a01b0392909216919091179055565b606580546001600160a01b038381166001600160a01b0319831681179093556040519116919082907f8be0079c531659141344cd1fd0a4f28419497f9722a3daafe3b4186f6b6457e090600090a35050565b600054610100900460ff16610be45760405162461bcd60e51b815260040161027c90611112565b600054610100900460ff16610ee95760405162461bcd60e51b815260040161027c90611112565b6033805460ff19169055565b600054610100900460ff16610f1c5760405162461bcd60e51b815260040161027c90611112565b610be433610e49565b60335460ff1615610f6b5760405162461bcd60e51b815260206004820152601060248201526f14185d5cd8589b194e881c185d5cd95960821b604482015260640161027c565b6033805460ff191660011790557f62e78cea01bee320cd4e420270b5ea74000d11b0c9f74754ebdbfc544b05a258610fa03390565b6040516001600160a01b03909116815260200160405180910390a1565b600060208284031215610fce578081fd5b8135610fd981611223565b9392505050565b600060208284031215610ff1578081fd5b8151610fd981611223565b6000806040838503121561100e578081fd5b823561101981611223565b946020939093013593505050565b600060208284031215611038578081fd5b5051919050565b600080600060608486031215611053578081fd5b833592506020840135915060408401356002811061106f578182fd5b809150509250925092565b60008060006060848603121561108e578283fd5b505081359360208301359350604090920135919050565b6001600160a01b0394851681529290931660208301526040820152606081019190915260a06080820181905260009082015260c00190565b6020808252818101527f4f776e61626c653a2063616c6c6572206973206e6f7420746865206f776e6572604082015260600190565b6020808252602b908201527f496e697469616c697a61626c653a20636f6e7472616374206973206e6f74206960408201526a6e697469616c697a696e6760a81b606082015260800190565b8881526001600160a01b038816602082015261010081016002881061119257634e487b7160e01b600052602160045260246000fd5b8760408301528660608301528560808301528460a08301528360c08301528260e08301529998505050505050505050565b600082198211156111d6576111d661120d565b500190565b6000828210156111ed576111ed61120d565b500390565b60006000198214156112065761120661120d565b5060010190565b634e487b7160e01b600052601160045260246000fd5b6001600160a01b0381168114610cb457600080fdfea264697066735822122068343e06284395b1a3d33520fa77d6160b15e30d59e229cb979cec27bc672e7764736f6c63430008040033",
  "linkReferences": {},
  "deployedLinkReferences": {}
}